{
  "contracts/DictatorDAOFlat.sol": {
    "DictatorDAO": {
      "abi": [
        {
          "inputs": [
            {
              "internalType": "string",
              "name": "sharesSymbol",
              "type": "string"
            },
            {
              "internalType": "string",
              "name": "sharesName",
              "type": "string"
            },
            {
              "internalType": "contract IERC20",
              "name": "token_",
              "type": "address"
            },
            {
              "internalType": "address",
              "name": "initialOperator",
              "type": "address"
            }
          ],
          "stateMutability": "nonpayable",
          "type": "constructor"
        },
        {
          "anonymous": false,
          "inputs": [
            {
              "indexed": true,
              "internalType": "address",
              "name": "owner",
              "type": "address"
            },
            {
              "indexed": true,
              "internalType": "address",
              "name": "spender",
              "type": "address"
            },
            {
              "indexed": false,
              "internalType": "uint256",
              "name": "value",
              "type": "uint256"
            }
          ],
          "name": "Approval",
          "type": "event"
        },
        {
          "anonymous": false,
          "inputs": [
            {
              "indexed": true,
              "internalType": "bytes32",
              "name": "txHash",
              "type": "bytes32"
            },
            {
              "indexed": true,
              "internalType": "address",
              "name": "target",
              "type": "address"
            },
            {
              "indexed": false,
              "internalType": "uint256",
              "name": "value",
              "type": "uint256"
            },
            {
              "indexed": false,
              "internalType": "bytes",
              "name": "data",
              "type": "bytes"
            }
          ],
          "name": "CancelTransaction",
          "type": "event"
        },
        {
          "anonymous": false,
          "inputs": [
            {
              "indexed": true,
              "internalType": "bytes32",
              "name": "txHash",
              "type": "bytes32"
            },
            {
              "indexed": true,
              "internalType": "address",
              "name": "target",
              "type": "address"
            },
            {
              "indexed": false,
              "internalType": "uint256",
              "name": "value",
              "type": "uint256"
            },
            {
              "indexed": false,
              "internalType": "bytes",
              "name": "data",
              "type": "bytes"
            }
          ],
          "name": "ExecuteTransaction",
          "type": "event"
        },
        {
          "anonymous": false,
          "inputs": [
            {
              "indexed": true,
              "internalType": "bytes32",
              "name": "txHash",
              "type": "bytes32"
            },
            {
              "indexed": true,
              "internalType": "address",
              "name": "target",
              "type": "address"
            },
            {
              "indexed": false,
              "internalType": "uint256",
              "name": "value",
              "type": "uint256"
            },
            {
              "indexed": false,
              "internalType": "bytes",
              "name": "data",
              "type": "bytes"
            },
            {
              "indexed": false,
              "internalType": "uint256",
              "name": "eta",
              "type": "uint256"
            }
          ],
          "name": "QueueTransaction",
          "type": "event"
        },
        {
          "anonymous": false,
          "inputs": [
            {
              "indexed": true,
              "internalType": "address",
              "name": "from",
              "type": "address"
            },
            {
              "indexed": true,
              "internalType": "address",
              "name": "to",
              "type": "address"
            },
            {
              "indexed": false,
              "internalType": "uint256",
              "name": "value",
              "type": "uint256"
            }
          ],
          "name": "Transfer",
          "type": "event"
        },
        {
          "inputs": [],
          "name": "DELAY",
          "outputs": [
            {
              "internalType": "uint256",
              "name": "",
              "type": "uint256"
            }
          ],
          "stateMutability": "view",
          "type": "function"
        },
        {
          "inputs": [],
          "name": "DOMAIN_SEPARATOR",
          "outputs": [
            {
              "internalType": "bytes32",
              "name": "",
              "type": "bytes32"
            }
          ],
          "stateMutability": "view",
          "type": "function"
        },
        {
          "inputs": [],
          "name": "GRACE_PERIOD",
          "outputs": [
            {
              "internalType": "uint256",
              "name": "",
              "type": "uint256"
            }
          ],
          "stateMutability": "view",
          "type": "function"
        },
        {
          "inputs": [
            {
              "internalType": "address",
              "name": "",
              "type": "address"
            },
            {
              "internalType": "address",
              "name": "",
              "type": "address"
            }
          ],
          "name": "allowance",
          "outputs": [
            {
              "internalType": "uint256",
              "name": "",
              "type": "uint256"
            }
          ],
          "stateMutability": "view",
          "type": "function"
        },
        {
          "inputs": [
            {
              "internalType": "address",
              "name": "spender",
              "type": "address"
            },
            {
              "internalType": "uint256",
              "name": "amount",
              "type": "uint256"
            }
          ],
          "name": "approve",
          "outputs": [
            {
              "internalType": "bool",
              "name": "",
              "type": "bool"
            }
          ],
          "stateMutability": "nonpayable",
          "type": "function"
        },
        {
          "inputs": [
            {
              "internalType": "address",
              "name": "user",
              "type": "address"
            }
          ],
          "name": "balanceOf",
          "outputs": [
            {
              "internalType": "uint256",
              "name": "balance",
              "type": "uint256"
            }
          ],
          "stateMutability": "view",
          "type": "function"
        },
        {
          "inputs": [
            {
              "internalType": "address",
              "name": "to",
              "type": "address"
            },
            {
              "internalType": "uint256",
              "name": "shares",
              "type": "uint256"
            }
          ],
          "name": "burn",
          "outputs": [
            {
              "internalType": "bool",
              "name": "",
              "type": "bool"
            }
          ],
          "stateMutability": "nonpayable",
          "type": "function"
        },
        {
          "inputs": [
            {
              "internalType": "address",
              "name": "from",
              "type": "address"
            },
            {
              "internalType": "address",
              "name": "to",
              "type": "address"
            },
            {
              "internalType": "uint256",
              "name": "shares",
              "type": "uint256"
            }
          ],
          "name": "burnFrom",
          "outputs": [
            {
              "internalType": "bool",
              "name": "",
              "type": "bool"
            }
          ],
          "stateMutability": "nonpayable",
          "type": "function"
        },
        {
          "inputs": [
            {
              "internalType": "address",
              "name": "target",
              "type": "address"
            },
            {
              "internalType": "uint256",
              "name": "value",
              "type": "uint256"
            },
            {
              "internalType": "bytes",
              "name": "data",
              "type": "bytes"
            }
          ],
          "name": "cancelTransaction",
          "outputs": [],
          "stateMutability": "nonpayable",
          "type": "function"
        },
        {
          "inputs": [],
          "name": "decimals",
          "outputs": [
            {
              "internalType": "uint8",
              "name": "",
              "type": "uint8"
            }
          ],
          "stateMutability": "view",
          "type": "function"
        },
        {
          "inputs": [
            {
              "internalType": "address",
              "name": "target",
              "type": "address"
            },
            {
              "internalType": "uint256",
              "name": "value",
              "type": "uint256"
            },
            {
              "internalType": "bytes",
              "name": "data",
              "type": "bytes"
            }
          ],
          "name": "executeTransaction",
          "outputs": [
            {
              "internalType": "bytes",
              "name": "",
              "type": "bytes"
            }
          ],
          "stateMutability": "payable",
          "type": "function"
        },
        {
          "inputs": [
            {
              "internalType": "uint256",
              "name": "amount",
              "type": "uint256"
            },
            {
              "internalType": "address",
              "name": "operatorVote",
              "type": "address"
            }
          ],
          "name": "mint",
          "outputs": [
            {
              "internalType": "bool",
              "name": "",
              "type": "bool"
            }
          ],
          "stateMutability": "nonpayable",
          "type": "function"
        },
        {
          "inputs": [],
          "name": "name",
          "outputs": [
            {
              "internalType": "string",
              "name": "",
              "type": "string"
            }
          ],
          "stateMutability": "view",
          "type": "function"
        },
        {
          "inputs": [
            {
              "internalType": "address",
              "name": "",
              "type": "address"
            }
          ],
          "name": "nonces",
          "outputs": [
            {
              "internalType": "uint256",
              "name": "",
              "type": "uint256"
            }
          ],
          "stateMutability": "view",
          "type": "function"
        },
        {
          "inputs": [],
          "name": "operator",
          "outputs": [
            {
              "internalType": "address",
              "name": "",
              "type": "address"
            }
          ],
          "stateMutability": "view",
          "type": "function"
        },
        {
          "inputs": [],
          "name": "pendingOperator",
          "outputs": [
            {
              "internalType": "address",
              "name": "",
              "type": "address"
            }
          ],
          "stateMutability": "view",
          "type": "function"
        },
        {
          "inputs": [],
          "name": "pendingOperatorTime",
          "outputs": [
            {
              "internalType": "uint256",
              "name": "",
              "type": "uint256"
            }
          ],
          "stateMutability": "view",
          "type": "function"
        },
        {
          "inputs": [
            {
              "internalType": "address",
              "name": "owner_",
              "type": "address"
            },
            {
              "internalType": "address",
              "name": "spender",
              "type": "address"
            },
            {
              "internalType": "uint256",
              "name": "value",
              "type": "uint256"
            },
            {
              "internalType": "uint256",
              "name": "deadline",
              "type": "uint256"
            },
            {
              "internalType": "uint8",
              "name": "v",
              "type": "uint8"
            },
            {
              "internalType": "bytes32",
              "name": "r",
              "type": "bytes32"
            },
            {
              "internalType": "bytes32",
              "name": "s",
              "type": "bytes32"
            }
          ],
          "name": "permit",
          "outputs": [],
          "stateMutability": "nonpayable",
          "type": "function"
        },
        {
          "inputs": [
            {
              "internalType": "address",
              "name": "target",
              "type": "address"
            },
            {
              "internalType": "uint256",
              "name": "value",
              "type": "uint256"
            },
            {
              "internalType": "bytes",
              "name": "data",
              "type": "bytes"
            }
          ],
          "name": "queueTransaction",
          "outputs": [
            {
              "internalType": "bytes32",
              "name": "",
              "type": "bytes32"
            }
          ],
          "stateMutability": "nonpayable",
          "type": "function"
        },
        {
          "inputs": [
            {
              "internalType": "bytes32",
              "name": "",
              "type": "bytes32"
            }
          ],
          "name": "queuedTransactions",
          "outputs": [
            {
              "internalType": "uint256",
              "name": "",
              "type": "uint256"
            }
          ],
          "stateMutability": "view",
          "type": "function"
        },
        {
          "inputs": [
            {
              "internalType": "address",
              "name": "newOperator",
              "type": "address"
            }
          ],
          "name": "setOperator",
          "outputs": [],
          "stateMutability": "nonpayable",
          "type": "function"
        },
        {
          "inputs": [],
          "name": "symbol",
          "outputs": [
            {
              "internalType": "string",
              "name": "",
              "type": "string"
            }
          ],
          "stateMutability": "view",
          "type": "function"
        },
        {
          "inputs": [],
          "name": "token",
          "outputs": [
            {
              "internalType": "contract IERC20",
              "name": "",
              "type": "address"
            }
          ],
          "stateMutability": "view",
          "type": "function"
        },
        {
          "inputs": [],
          "name": "totalSupply",
          "outputs": [
            {
              "internalType": "uint256",
              "name": "",
              "type": "uint256"
            }
          ],
          "stateMutability": "view",
          "type": "function"
        },
        {
          "inputs": [
            {
              "internalType": "address",
              "name": "to",
              "type": "address"
            },
            {
              "internalType": "uint256",
              "name": "shares",
              "type": "uint256"
            }
          ],
          "name": "transfer",
          "outputs": [
            {
              "internalType": "bool",
              "name": "",
              "type": "bool"
            }
          ],
          "stateMutability": "nonpayable",
          "type": "function"
        },
        {
          "inputs": [
            {
              "internalType": "address",
              "name": "from",
              "type": "address"
            },
            {
              "internalType": "address",
              "name": "to",
              "type": "address"
            },
            {
              "internalType": "uint256",
              "name": "shares",
              "type": "uint256"
            }
          ],
          "name": "transferFrom",
          "outputs": [
            {
              "internalType": "bool",
              "name": "",
              "type": "bool"
            }
          ],
          "stateMutability": "nonpayable",
          "type": "function"
        },
        {
          "inputs": [
            {
              "internalType": "address",
              "name": "",
              "type": "address"
            }
          ],
          "name": "userVote",
          "outputs": [
            {
              "internalType": "address",
              "name": "",
              "type": "address"
            }
          ],
          "stateMutability": "view",
          "type": "function"
        },
        {
          "inputs": [
            {
              "internalType": "address",
              "name": "",
              "type": "address"
            }
          ],
          "name": "users",
          "outputs": [
            {
              "internalType": "uint128",
              "name": "balance",
              "type": "uint128"
            },
            {
              "internalType": "uint128",
              "name": "lockedUntil",
              "type": "uint128"
            }
          ],
          "stateMutability": "view",
          "type": "function"
        },
        {
          "inputs": [
            {
              "internalType": "address",
              "name": "operatorVote",
              "type": "address"
            }
          ],
          "name": "vote",
          "outputs": [
            {
              "internalType": "bool",
              "name": "",
              "type": "bool"
            }
          ],
          "stateMutability": "nonpayable",
          "type": "function"
        },
        {
          "inputs": [
            {
              "internalType": "address",
              "name": "",
              "type": "address"
            }
          ],
          "name": "votes",
          "outputs": [
            {
              "internalType": "uint256",
              "name": "",
              "type": "uint256"
            }
          ],
          "stateMutability": "view",
          "type": "function"
        }
      ],
      "evm": {
        "bytecode": {
          "linkReferences": {},
          "object": "60e06040523480156200001157600080fd5b50604051620028333803806200283383398101604081905262000034916200021e565b4660a08190526200004581620000b0565b6080525083516200005e90600090602087019062000106565b5082516200007490600190602086019062000106565b5060609190911b6001600160601b03191660c052600380546001600160a01b0319166001600160a01b0390921691909117905550620003d99050565b60007f47e79534a245952e8b16893a336b85a3d9ea9fa8c573f3d803afb92a794692188230604051602001620000e993929190620002d3565b604051602081830303815290604052805190602001209050919050565b828054600181600116156101000203166002900490600052602060002090601f016020900481019282601f106200014957805160ff191683800117855562000179565b8280016001018555821562000179579182015b82811115620001795782518255916020019190600101906200015c565b50620001879291506200018b565b5090565b5b808211156200018757600081556001016200018c565b8051620001af81620003b4565b92915050565b8051620001af81620003ce565b600082601f830112620001d457600080fd5b8151620001eb620001e58262000330565b62000309565b915080825260208301602083018583830111156200020857600080fd5b6200021583828462000381565b50505092915050565b600080600080608085870312156200023557600080fd5b84516001600160401b038111156200024c57600080fd5b6200025a87828801620001c2565b94505060208501516001600160401b038111156200027757600080fd5b6200028587828801620001c2565b93505060406200029887828801620001b5565b9250506060620002ab87828801620001a2565b91505092959194509250565b620002c28162000358565b82525050565b620002c28162000365565b60608101620002e38286620002c8565b620002f26020830185620002c8565b620003016040830184620002b7565b949350505050565b6040518181016001600160401b03811182821017156200032857600080fd5b604052919050565b60006001600160401b038211156200034757600080fd5b506020601f91909101601f19160190565b6000620001af8262000375565b90565b6000620001af8262000358565b6001600160a01b031690565b60005b838110156200039e57818101518382015260200162000384565b83811115620003ae576000848401525b50505050565b620003bf8162000358565b8114620003cb57600080fd5b50565b620003bf8162000368565b60805160a05160c05160601c6124166200041d60003980610b275280610d1152806112bb52806116bb52806117ed52508061159d5250806115d252506124166000f3fe6080604052600436106101cd5760003560e01c806395d89b41116100f7578063d505accf11610095578063ec60bcf311610064578063ec60bcf3146104f1578063f2b0653714610511578063f5ba1c8714610531578063fc0c546a14610551576101cd565b8063d505accf14610471578063d8bff5a514610491578063dd62ed3e146104b1578063e37c9fd5146104d1576101cd565b8063a9059cbb116100d1578063a9059cbb14610405578063ac7e534e14610425578063b3ab15fb1461043a578063c1a287e21461045c576101cd565b806395d89b41146103a25780639dc29fac146103b7578063a87430ba146103d7576101cd565b80634881636d1161016f57806370a082311161013e57806370a08231146103225780637ecebe001461034257806380b3b0991461036257806394bf804d14610382576101cd565b80634881636d146102b6578063570ca735146102cb57806369b41170146102ed5780636dd7d8ea14610302576101cd565b806323b872dd116101ab57806323b872dd1461024c578063313ce5671461026c5780633644e5151461028e5780633f579f42146102a3576101cd565b806306fdde03146101d2578063095ea7b3146101fd57806318160ddd1461022a575b600080fd5b3480156101de57600080fd5b506101e7610573565b6040516101f49190612156565b60405180910390f35b34801561020957600080fd5b5061021d610218366004611b70565b610600565b6040516101f49190612083565b34801561023657600080fd5b5061023f61066b565b6040516101f49190612091565b34801561025857600080fd5b5061021d610267366004611a87565b610671565b34801561027857600080fd5b50610281610693565b6040516101f491906122df565b34801561029a57600080fd5b5061023f610698565b6101e76102b1366004611ba0565b6106a7565b3480156102c257600080fd5b5061023f610881565b3480156102d757600080fd5b506102e0610887565b6040516101f49190611ffc565b3480156102f957600080fd5b5061023f610896565b34801561030e57600080fd5b5061021d61031d366004611a27565b61089d565b34801561032e57600080fd5b5061023f61033d366004611a27565b61097c565b34801561034e57600080fd5b5061023f61035d366004611a27565b6109a0565b34801561036e57600080fd5b5061023f61037d366004611ba0565b6109b2565b34801561038e57600080fd5b5061021d61039d366004611c55565b610ab7565b3480156103ae57600080fd5b506101e7610def565b3480156103c357600080fd5b5061021d6103d2366004611b70565b610e4a565b3480156103e357600080fd5b506103f76103f2366004611a27565b610e57565b6040516101f4929190612275565b34801561041157600080fd5b5061021d610420366004611b70565b610e7d565b34801561043157600080fd5b506102e0610e8a565b34801561044657600080fd5b5061045a610455366004611a27565b610e99565b005b34801561046857600080fd5b5061023f610feb565b34801561047d57600080fd5b5061045a61048c366004611ad4565b610ff2565b34801561049d57600080fd5b5061023f6104ac366004611a27565b611193565b3480156104bd57600080fd5b5061023f6104cc366004611a4d565b6111a5565b3480156104dd57600080fd5b5061045a6104ec366004611ba0565b6111c2565b3480156104fd57600080fd5b5061021d61050c366004611a87565b611275565b34801561051d57600080fd5b5061023f61052c366004611c19565b61128c565b34801561053d57600080fd5b506102e061054c366004611a27565b61129e565b34801561055d57600080fd5b506105666112b9565b6040516101f49190612167565b60018054604080516020600284861615610100026000190190941693909304601f810184900484028201840190925281815292918301828280156105f85780601f106105cd576101008083540402835291602001916105f8565b820191906000526020600020905b8154815290600101906020018083116105db57829003601f168201915b505050505081565b3360008181526007602090815260408083206001600160a01b038716808552925280832085905551919290917f8c5be1e5ebec7d5bd14f71427d1e84f3dd0314c0f7b2291e5b200ac8c7c3b92590610659908690612091565b60405180910390a35060015b92915050565b60025481565b600061067d84836112dd565b61068884848461136e565b5060015b9392505050565b601281565b60006106a2611598565b905090565b6003546060906001600160a01b031633146106dd5760405162461bcd60e51b81526004016106d490612225565b60405180910390fd5b600280546003546001600160a01b03166000908152600560205260409020549091021161071c5760405162461bcd60e51b81526004016106d490612185565b60008484846040516020016107339392919061204d565b60408051601f1981840301815291815281516020928301206000818152600b9093529120549091504281111561077b5760405162461bcd60e51b81526004016106d490612205565b6212750081014211156107a05760405162461bcd60e51b81526004016106d4906121e5565b6000828152600b6020526040808220829055516060906001600160a01b0389169088906107ce908990611fbd565b60006040518083038185875af1925050503d806000811461080b576040519150601f19603f3d011682016040523d82523d6000602084013e610810565b606091505b5091509150816108325760405162461bcd60e51b81526004016106d490612215565b876001600160a01b0316847f71f2f703ef5605f99bb79556066217af28b9d991b829c9f4255e1abdf873fb4a898960405161086e929190612290565b60405180910390a3979650505050505050565b600a5481565b6003546001600160a01b031681565b6202a30081565b336000908152600460205260408120546001600160a01b039081169083168114610973576108c9611985565b50336000908152600660209081526040918290208251808401909352546001600160801b03808216808552600160801b9092041691830191909152156109495780516001600160a01b0380841660009081526005602052604080822080546001600160801b03958616900390558451928816825290208054919092160190555b5033600090815260046020526040902080546001600160a01b0319166001600160a01b0385161790555b50600192915050565b6001600160a01b03166000908152600660205260409020546001600160801b031690565b60086020526000908152604090205481565b6003546000906001600160a01b031633146109df5760405162461bcd60e51b81526004016106d490612225565b600280546003546001600160a01b031660009081526005602052604090205490910211610a1e5760405162461bcd60e51b81526004016106d490612185565b6000848484604051602001610a359392919061204d565b60408051601f1981840301815282825280516020918201206000818152600b909252919020426202a3000190819055909250906001600160a01b0387169083907f9ffdf0c63c8eec344b500e806ac1d1d37308fdf141a29d10cdd82c069aec6e4890610aa6908990899087906122b0565b60405180910390a350949350505050565b600033610ad65760405162461bcd60e51b81526004016106d4906121d5565b610ade611985565b503360009081526006602090815260408083208151808301835290546001600160801b038082168352600160801b9091041692810192909252516370a0823160e01b81529091907f00000000000000000000000000000000000000000000000000000000000000006001600160a01b0316906370a0823190610b64903090600401611ffc565b60206040518083038186803b158015610b7c57600080fd5b505afa158015610b90573d6000803e3d6000fd5b505050506040513d601f19601f82011682018060405250810190610bb49190611c37565b90506000600254600014610bd55781600254870281610bcf57fe5b04610bd7565b855b336000908152600460205260409020549091506001600160a01b0390811690829087168214610c695784516001600160801b031615610c405784516001600160a01b038316600090815260056020526040902080546001600160801b0392831690039055855116015b33600090815260046020526040902080546001600160a01b0319166001600160a01b0389161790555b6001600160a01b0387166000908152600560205260409020805482019055610c90836115f8565b8551016001600160801b03168552610cac4262015180016115f8565b6001600160801b03908116602080880191825233600081815260069092526040918290208951815494518616600160801b029086166001600160801b03199095169490941790941692909217909255600280548601905590516323b872dd60e01b81527f00000000000000000000000000000000000000000000000000000000000000006001600160a01b0316916323b872dd91610d51919030908d9060040161200a565b602060405180830381600087803b158015610d6b57600080fd5b505af1158015610d7f573d6000803e3d6000fd5b505050506040513d601f19601f82011682018060405250810190610da39190611bfb565b5060405133906000907fddf252ad1be2c89b69c2b068fc378daa952ba7f163c4a11628f55a4df523b3ef90610dd9908790612091565b60405180910390a3506001979650505050505050565b6000805460408051602060026001851615610100026000190190941693909304601f810184900484028201840190925281815292918301828280156105f85780601f106105cd576101008083540402835291602001916105f8565b6000610973338484611625565b6006602052600090815260409020546001600160801b0380821691600160801b90041682565b600061097333848461136e565b6009546001600160a01b031681565b6001600160a01b038116610ebf5760405162461bcd60e51b81526004016106d4906121b5565b6000805260056020527f05b8ccbb9d4d8fb16ea74ce3c29a41f1b461fbdaff4714a0d9a8eb05499746bc54600254600954919003906001600160a01b03838116911614610f69576001600160a01b0382166000908152600560205260409020546002028110610f405760405162461bcd60e51b81526004016106d490612185565b600980546001600160a01b0319166001600160a01b0384161790554262093a8001600a55610fe7565b6001600160a01b038216600090815260056020526040902054600202811015610fd157600a54421015610fae5760405162461bcd60e51b81526004016106d490612265565b600954600380546001600160a01b0319166001600160a01b039092169190911790555b600980546001600160a01b03191690556000600a555b5050565b6212750081565b6001600160a01b0387166110185760405162461bcd60e51b81526004016106d490612245565b8342106110375760405162461bcd60e51b81526004016106d490612255565b6001600160a01b03871660008181526008602090815260409182902080546001818101909255925190926110b59261109a927f6e71edae12b1b97f4d1f60370fef10105fa2faae0126114a169c64845d6126c9928e928e928e92918e910161209f565b604051602081830303815290604052805190602001206118ca565b858585604051600081526020016040526040516110d59493929190612121565b6020604051602081039080840390855afa1580156110f7573d6000803e3d6000fd5b505050602060405103516001600160a01b0316146111275760405162461bcd60e51b81526004016106d490612235565b6001600160a01b038088166000818152600760209081526040808320948b168084529490915290819020889055517f8c5be1e5ebec7d5bd14f71427d1e84f3dd0314c0f7b2291e5b200ac8c7c3b92590611182908990612091565b60405180910390a350505050505050565b60056020526000908152604090205481565b600760209081526000928352604080842090915290825290205481565b6003546001600160a01b031633146111ec5760405162461bcd60e51b81526004016106d490612225565b60008383836040516020016112039392919061204d565b60408051601f1981840301815282825280516020918201206000818152600b9092529181205591506001600160a01b0385169082907f7666fc3824e27fff7f62adc190adf39d59915b1634803f46f6002f5a071de7f7906112679087908790612290565b60405180910390a350505050565b600061128184836112dd565b610688848484611625565b600b6020526000908152604090205481565b6004602052600090815260409020546001600160a01b031681565b7f000000000000000000000000000000000000000000000000000000000000000081565b336001600160a01b03831614156112f357610fe7565b6001600160a01b0382166000908152600760209081526040808320338452909152902054600019811461136957818110156113405760405162461bcd60e51b81526004016106d4906121a5565b6001600160a01b0383166000908152600760209081526040808320338452909152902082820390555b505050565b611376611985565b506001600160a01b0383166000908152600660209081526040918290208251808401909352546001600160801b038082168452600160801b909104169082018190524210156113d75760405162461bcd60e51b81526004016106d490612195565b81156115555780516001600160801b03168211156114075760405162461bcd60e51b81526004016106d4906121c5565b826001600160a01b0316846001600160a01b031614611555576001600160a01b0383166114465760405162461bcd60e51b81526004016106d4906121d5565b61144e611985565b506001600160a01b0380841660008181526006602090815260408083208151808301835290546001600160801b038082168352600160801b90910416818401529383526004909152808220548885168352912054919290811691166114b2856115f8565b84516001600160a01b038916600090815260066020526040902080546001600160801b031916929091036001600160801b03169190911790556114f4856115f8565b92516001600160a01b03878116600090815260066020908152604080832080546001600160801b031916959098016001600160801b031694909417909655928116835260059094528082208054879003905591909216825290208054830190555b826001600160a01b0316846001600160a01b03167fddf252ad1be2c89b69c2b068fc378daa952ba7f163c4a11628f55a4df523b3ef846040516112679190612091565b6000467f000000000000000000000000000000000000000000000000000000000000000081146115d0576115cb8161191f565b6115f2565b7f00000000000000000000000000000000000000000000000000000000000000005b91505090565b60006001600160801b038211156116215760405162461bcd60e51b81526004016106d4906121f5565b5090565b6001600160a01b03821661164b5760405162461bcd60e51b81526004016106d4906121d5565b611653611985565b506001600160a01b0383166000908152600660209081526040918290208251808401909352546001600160801b038082168452600160801b909104169082018190524210156116b45760405162461bcd60e51b81526004016106d490612195565b60006002547f00000000000000000000000000000000000000000000000000000000000000006001600160a01b03166370a08231306040518263ffffffff1660e01b81526004016117059190611ffc565b60206040518083038186803b15801561171d57600080fd5b505afa158015611731573d6000803e3d6000fd5b505050506040513d601f19601f820116820180604052508101906117559190611c37565b84028161175e57fe5b04905061177e61176d846115f8565b83516001600160801b031690611956565b6001600160a01b03868116600090815260066020908152604080832080546001600160801b0319166001600160801b0396909616959095179094556002805488900390556004808252848320548416835260059091529083902080548790039055915163a9059cbb60e01b81527f00000000000000000000000000000000000000000000000000000000000000009091169163a9059cbb91611824918891869101612032565b602060405180830381600087803b15801561183e57600080fd5b505af1158015611852573d6000803e3d6000fd5b505050506040513d601f19601f820116820180604052508101906118769190611bfb565b5060006001600160a01b0316856001600160a01b03167fddf252ad1be2c89b69c2b068fc378daa952ba7f163c4a11628f55a4df523b3ef856040516118bb9190612091565b60405180910390a35050505050565b600060405180604001604052806002815260200161190160f01b8152506118ef611598565b8360405160200161190293929190611fc9565b604051602081830303815290604052805190602001209050919050565b60007f47e79534a245952e8b16893a336b85a3d9ea9fa8c573f3d803afb92a794692188230604051602001611902939291906120f9565b8082036001600160801b0380841690821611156106655760405162461bcd60e51b81526004016106d490612175565b604080518082019091526000808252602082015290565b8035610665816123d7565b8051610665816123ee565b8035610665816123f7565b600082601f8301126119ce57600080fd5b81356119e16119dc82612314565b6122ed565b915080825260208301602083018583830111156119fd57600080fd5b611a08838284612391565b50505092915050565b8051610665816123f7565b803561066581612400565b600060208284031215611a3957600080fd5b6000611a45848461199c565b949350505050565b60008060408385031215611a6057600080fd5b6000611a6c858561199c565b9250506020611a7d8582860161199c565b9150509250929050565b600080600060608486031215611a9c57600080fd5b6000611aa8868661199c565b9350506020611ab98682870161199c565b9250506040611aca868287016119b2565b9150509250925092565b600080600080600080600060e0888a031215611aef57600080fd5b6000611afb8a8a61199c565b9750506020611b0c8a828b0161199c565b9650506040611b1d8a828b016119b2565b9550506060611b2e8a828b016119b2565b9450506080611b3f8a828b01611a1c565b93505060a0611b508a828b016119b2565b92505060c0611b618a828b016119b2565b91505092959891949750929550565b60008060408385031215611b8357600080fd5b6000611b8f858561199c565b9250506020611a7d858286016119b2565b600080600060608486031215611bb557600080fd5b6000611bc1868661199c565b9350506020611bd2868287016119b2565b925050604084013567ffffffffffffffff811115611bef57600080fd5b611aca868287016119bd565b600060208284031215611c0d57600080fd5b6000611a4584846119a7565b600060208284031215611c2b57600080fd5b6000611a4584846119b2565b600060208284031215611c4957600080fd5b6000611a458484611a11565b60008060408385031215611c6857600080fd5b6000611a6c85856119b2565b611c7d8161237f565b82525050565b611c7d8161234e565b611c7d81612359565b611c7d8161235e565b611c7d611caa8261235e565b61235e565b6000611cba8261233c565b611cc48185612340565b9350611cd481856020860161239d565b611cdd816123cd565b9093019392505050565b6000611cf28261233c565b611cfc8185612349565b9350611d0c81856020860161239d565b9290920192915050565b611c7d81612386565b6000611d2c601583612340565b74426f72696e674d6174683a20556e646572666c6f7760581b815260200192915050565b6000611d5d601083612340565b6f4e6f7420656e6f75676820766f74657360801b815260200192915050565b6000611d89600683612340565b65131bd8dad95960d21b815260200192915050565b6000611dab600d83612340565b6c4c6f7720616c6c6f77616e636560981b815260200192915050565b6000611dd4600d83612340565b6c2d32b9379037b832b930ba37b960991b815260200192915050565b6000611dfd600b83612340565b6a4c6f772062616c616e636560a81b815260200192915050565b6000611e24600c83612340565b6b5a65726f206164647265737360a01b815260200192915050565b6000611e4c600883612340565b675478207374616c6560c01b815260200192915050565b6000611e70601c83612340565b7f426f72696e674d6174683a2075696e74313238204f766572666c6f7700000000815260200192915050565b6000611ea9600983612340565b68546f6f206561726c7960b81b815260200192915050565b6000611ece600e83612340565b6d0a8f040e4caeccae4e8cac84074560931b815260200192915050565b6000611ef8600d83612340565b6c4f70657261746f72206f6e6c7960981b815260200192915050565b6000611f21600b83612340565b6a496e76616c69642053696760a81b815260200192915050565b6000611f48600a83612340565b692d32b9379037bbb732b960b11b815260200192915050565b6000611f6e600783612340565b66115e1c1a5c995960ca1b815260200192915050565b6000611f91600b83612340565b6a2bb0b4ba103637b733b2b960a91b815260200192915050565b611c7d81612361565b611c7d81612379565b600061068c8284611ce7565b6000611fd58286611ce7565b9150611fe18285611c9e565b602082019150611ff18284611c9e565b506020019392505050565b602081016106658284611c83565b606081016120188286611c74565b6120256020830185611c83565b611a456040830184611c95565b604081016120408285611c83565b61068c6020830184611c95565b6060810161205b8286611c83565b6120686020830185611c95565b818103604083015261207a8184611caf565b95945050505050565b602081016106658284611c8c565b602081016106658284611c95565b60c081016120ad8289611c95565b6120ba6020830188611c83565b6120c76040830187611c83565b6120d46060830186611c95565b6120e16080830185611c95565b6120ee60a0830184611c95565b979650505050505050565b606081016121078286611c95565b6121146020830185611c95565b611a456040830184611c83565b6080810161212f8287611c95565b61213c6020830186611fb4565b6121496040830185611c95565b61207a6060830184611c95565b6020808252810161068c8184611caf565b602081016106658284611d16565b6020808252810161066581611d1f565b6020808252810161066581611d50565b6020808252810161066581611d7c565b6020808252810161066581611d9e565b6020808252810161066581611dc7565b6020808252810161066581611df0565b6020808252810161066581611e17565b6020808252810161066581611e3f565b6020808252810161066581611e63565b6020808252810161066581611e9c565b6020808252810161066581611ec1565b6020808252810161066581611eeb565b6020808252810161066581611f14565b6020808252810161066581611f3b565b6020808252810161066581611f61565b6020808252810161066581611f84565b604081016122838285611fab565b61068c6020830184611fab565b6040810161229e8285611c95565b8181036020830152611a458184611caf565b606081016122be8286611c95565b81810360208301526122d08185611caf565b9050611a456040830184611c95565b602081016106658284611fb4565b60405181810167ffffffffffffffff8111828210171561230c57600080fd5b604052919050565b600067ffffffffffffffff82111561232b57600080fd5b506020601f91909101601f19160190565b5190565b90815260200190565b919050565b60006106658261236d565b151590565b90565b6001600160801b031690565b6001600160a01b031690565b60ff1690565b6000610665825b60006106658261234e565b82818337506000910152565b60005b838110156123b85781810151838201526020016123a0565b838111156123c7576000848401525b50505050565b601f01601f191690565b6123e08161234e565b81146123eb57600080fd5b50565b6123e081612359565b6123e08161235e565b6123e08161237956fea164736f6c634300060c000a",
          "opcodes": "PUSH1 0xE0 PUSH1 0x40 MSTORE CALLVALUE DUP1 ISZERO PUSH3 0x11 JUMPI PUSH1 0x0 DUP1 REVERT JUMPDEST POP PUSH1 0x40 MLOAD PUSH3 0x2833 CODESIZE SUB DUP1 PUSH3 0x2833 DUP4 CODECOPY DUP2 ADD PUSH1 0x40 DUP2 SWAP1 MSTORE PUSH3 0x34 SWAP2 PUSH3 0x21E JUMP JUMPDEST CHAINID PUSH1 0xA0 DUP2 SWAP1 MSTORE PUSH3 0x45 DUP2 PUSH3 0xB0 JUMP JUMPDEST PUSH1 0x80 MSTORE POP DUP4 MLOAD PUSH3 0x5E SWAP1 PUSH1 0x0 SWAP1 PUSH1 0x20 DUP8 ADD SWAP1 PUSH3 0x106 JUMP JUMPDEST POP DUP3 MLOAD PUSH3 0x74 SWAP1 PUSH1 0x1 SWAP1 PUSH1 0x20 DUP7 ADD SWAP1 PUSH3 0x106 JUMP JUMPDEST POP PUSH1 0x60 SWAP2 SWAP1 SWAP2 SHL PUSH1 0x1 PUSH1 0x1 PUSH1 0x60 SHL SUB NOT AND PUSH1 0xC0 MSTORE PUSH1 0x3 DUP1 SLOAD PUSH1 0x1 PUSH1 0x1 PUSH1 0xA0 SHL SUB NOT AND PUSH1 0x1 PUSH1 0x1 PUSH1 0xA0 SHL SUB SWAP1 SWAP3 AND SWAP2 SWAP1 SWAP2 OR SWAP1 SSTORE POP PUSH3 0x3D9 SWAP1 POP JUMP JUMPDEST PUSH1 0x0 PUSH32 0x47E79534A245952E8B16893A336B85A3D9EA9FA8C573F3D803AFB92A79469218 DUP3 ADDRESS PUSH1 0x40 MLOAD PUSH1 0x20 ADD PUSH3 0xE9 SWAP4 SWAP3 SWAP2 SWAP1 PUSH3 0x2D3 JUMP JUMPDEST PUSH1 0x40 MLOAD PUSH1 0x20 DUP2 DUP4 SUB SUB DUP2 MSTORE SWAP1 PUSH1 0x40 MSTORE DUP1 MLOAD SWAP1 PUSH1 0x20 ADD KECCAK256 SWAP1 POP SWAP2 SWAP1 POP JUMP JUMPDEST DUP3 DUP1 SLOAD PUSH1 0x1 DUP2 PUSH1 0x1 AND ISZERO PUSH2 0x100 MUL SUB AND PUSH1 0x2 SWAP1 DIV SWAP1 PUSH1 0x0 MSTORE PUSH1 0x20 PUSH1 0x0 KECCAK256 SWAP1 PUSH1 0x1F ADD PUSH1 0x20 SWAP1 DIV DUP2 ADD SWAP3 DUP3 PUSH1 0x1F LT PUSH3 0x149 JUMPI DUP1 MLOAD PUSH1 0xFF NOT AND DUP4 DUP1 ADD OR DUP6 SSTORE PUSH3 0x179 JUMP JUMPDEST DUP3 DUP1 ADD PUSH1 0x1 ADD DUP6 SSTORE DUP3 ISZERO PUSH3 0x179 JUMPI SWAP2 DUP3 ADD JUMPDEST DUP3 DUP2 GT ISZERO PUSH3 0x179 JUMPI DUP3 MLOAD DUP3 SSTORE SWAP2 PUSH1 0x20 ADD SWAP2 SWAP1 PUSH1 0x1 ADD SWAP1 PUSH3 0x15C JUMP JUMPDEST POP PUSH3 0x187 SWAP3 SWAP2 POP PUSH3 0x18B JUMP JUMPDEST POP SWAP1 JUMP JUMPDEST JUMPDEST DUP1 DUP3 GT ISZERO PUSH3 0x187 JUMPI PUSH1 0x0 DUP2 SSTORE PUSH1 0x1 ADD PUSH3 0x18C JUMP JUMPDEST DUP1 MLOAD PUSH3 0x1AF DUP2 PUSH3 0x3B4 JUMP JUMPDEST SWAP3 SWAP2 POP POP JUMP JUMPDEST DUP1 MLOAD PUSH3 0x1AF DUP2 PUSH3 0x3CE JUMP JUMPDEST PUSH1 0x0 DUP3 PUSH1 0x1F DUP4 ADD SLT PUSH3 0x1D4 JUMPI PUSH1 0x0 DUP1 REVERT JUMPDEST DUP2 MLOAD PUSH3 0x1EB PUSH3 0x1E5 DUP3 PUSH3 0x330 JUMP JUMPDEST PUSH3 0x309 JUMP JUMPDEST SWAP2 POP DUP1 DUP3 MSTORE PUSH1 0x20 DUP4 ADD PUSH1 0x20 DUP4 ADD DUP6 DUP4 DUP4 ADD GT ISZERO PUSH3 0x208 JUMPI PUSH1 0x0 DUP1 REVERT JUMPDEST PUSH3 0x215 DUP4 DUP3 DUP5 PUSH3 0x381 JUMP JUMPDEST POP POP POP SWAP3 SWAP2 POP POP JUMP JUMPDEST PUSH1 0x0 DUP1 PUSH1 0x0 DUP1 PUSH1 0x80 DUP6 DUP8 SUB SLT ISZERO PUSH3 0x235 JUMPI PUSH1 0x0 DUP1 REVERT JUMPDEST DUP5 MLOAD PUSH1 0x1 PUSH1 0x1 PUSH1 0x40 SHL SUB DUP2 GT ISZERO PUSH3 0x24C JUMPI PUSH1 0x0 DUP1 REVERT JUMPDEST PUSH3 0x25A DUP8 DUP3 DUP9 ADD PUSH3 0x1C2 JUMP JUMPDEST SWAP5 POP POP PUSH1 0x20 DUP6 ADD MLOAD PUSH1 0x1 PUSH1 0x1 PUSH1 0x40 SHL SUB DUP2 GT ISZERO PUSH3 0x277 JUMPI PUSH1 0x0 DUP1 REVERT JUMPDEST PUSH3 0x285 DUP8 DUP3 DUP9 ADD PUSH3 0x1C2 JUMP JUMPDEST SWAP4 POP POP PUSH1 0x40 PUSH3 0x298 DUP8 DUP3 DUP9 ADD PUSH3 0x1B5 JUMP JUMPDEST SWAP3 POP POP PUSH1 0x60 PUSH3 0x2AB DUP8 DUP3 DUP9 ADD PUSH3 0x1A2 JUMP JUMPDEST SWAP2 POP POP SWAP3 SWAP6 SWAP2 SWAP5 POP SWAP3 POP JUMP JUMPDEST PUSH3 0x2C2 DUP2 PUSH3 0x358 JUMP JUMPDEST DUP3 MSTORE POP POP JUMP JUMPDEST PUSH3 0x2C2 DUP2 PUSH3 0x365 JUMP JUMPDEST PUSH1 0x60 DUP2 ADD PUSH3 0x2E3 DUP3 DUP7 PUSH3 0x2C8 JUMP JUMPDEST PUSH3 0x2F2 PUSH1 0x20 DUP4 ADD DUP6 PUSH3 0x2C8 JUMP JUMPDEST PUSH3 0x301 PUSH1 0x40 DUP4 ADD DUP5 PUSH3 0x2B7 JUMP JUMPDEST SWAP5 SWAP4 POP POP POP POP JUMP JUMPDEST PUSH1 0x40 MLOAD DUP2 DUP2 ADD PUSH1 0x1 PUSH1 0x1 PUSH1 0x40 SHL SUB DUP2 GT DUP3 DUP3 LT OR ISZERO PUSH3 0x328 JUMPI PUSH1 0x0 DUP1 REVERT JUMPDEST PUSH1 0x40 MSTORE SWAP2 SWAP1 POP JUMP JUMPDEST PUSH1 0x0 PUSH1 0x1 PUSH1 0x1 PUSH1 0x40 SHL SUB DUP3 GT ISZERO PUSH3 0x347 JUMPI PUSH1 0x0 DUP1 REVERT JUMPDEST POP PUSH1 0x20 PUSH1 0x1F SWAP2 SWAP1 SWAP2 ADD PUSH1 0x1F NOT AND ADD SWAP1 JUMP JUMPDEST PUSH1 0x0 PUSH3 0x1AF DUP3 PUSH3 0x375 JUMP JUMPDEST SWAP1 JUMP JUMPDEST PUSH1 0x0 PUSH3 0x1AF DUP3 PUSH3 0x358 JUMP JUMPDEST PUSH1 0x1 PUSH1 0x1 PUSH1 0xA0 SHL SUB AND SWAP1 JUMP JUMPDEST PUSH1 0x0 JUMPDEST DUP4 DUP2 LT ISZERO PUSH3 0x39E JUMPI DUP2 DUP2 ADD MLOAD DUP4 DUP3 ADD MSTORE PUSH1 0x20 ADD PUSH3 0x384 JUMP JUMPDEST DUP4 DUP2 GT ISZERO PUSH3 0x3AE JUMPI PUSH1 0x0 DUP5 DUP5 ADD MSTORE JUMPDEST POP POP POP POP JUMP JUMPDEST PUSH3 0x3BF DUP2 PUSH3 0x358 JUMP JUMPDEST DUP2 EQ PUSH3 0x3CB JUMPI PUSH1 0x0 DUP1 REVERT JUMPDEST POP JUMP JUMPDEST PUSH3 0x3BF DUP2 PUSH3 0x368 JUMP JUMPDEST PUSH1 0x80 MLOAD PUSH1 0xA0 MLOAD PUSH1 0xC0 MLOAD PUSH1 0x60 SHR PUSH2 0x2416 PUSH3 0x41D PUSH1 0x0 CODECOPY DUP1 PUSH2 0xB27 MSTORE DUP1 PUSH2 0xD11 MSTORE DUP1 PUSH2 0x12BB MSTORE DUP1 PUSH2 0x16BB MSTORE DUP1 PUSH2 0x17ED MSTORE POP DUP1 PUSH2 0x159D MSTORE POP DUP1 PUSH2 0x15D2 MSTORE POP PUSH2 0x2416 PUSH1 0x0 RETURN INVALID PUSH1 0x80 PUSH1 0x40 MSTORE PUSH1 0x4 CALLDATASIZE LT PUSH2 0x1CD JUMPI PUSH1 0x0 CALLDATALOAD PUSH1 0xE0 SHR DUP1 PUSH4 0x95D89B41 GT PUSH2 0xF7 JUMPI DUP1 PUSH4 0xD505ACCF GT PUSH2 0x95 JUMPI DUP1 PUSH4 0xEC60BCF3 GT PUSH2 0x64 JUMPI DUP1 PUSH4 0xEC60BCF3 EQ PUSH2 0x4F1 JUMPI DUP1 PUSH4 0xF2B06537 EQ PUSH2 0x511 JUMPI DUP1 PUSH4 0xF5BA1C87 EQ PUSH2 0x531 JUMPI DUP1 PUSH4 0xFC0C546A EQ PUSH2 0x551 JUMPI PUSH2 0x1CD JUMP JUMPDEST DUP1 PUSH4 0xD505ACCF EQ PUSH2 0x471 JUMPI DUP1 PUSH4 0xD8BFF5A5 EQ PUSH2 0x491 JUMPI DUP1 PUSH4 0xDD62ED3E EQ PUSH2 0x4B1 JUMPI DUP1 PUSH4 0xE37C9FD5 EQ PUSH2 0x4D1 JUMPI PUSH2 0x1CD JUMP JUMPDEST DUP1 PUSH4 0xA9059CBB GT PUSH2 0xD1 JUMPI DUP1 PUSH4 0xA9059CBB EQ PUSH2 0x405 JUMPI DUP1 PUSH4 0xAC7E534E EQ PUSH2 0x425 JUMPI DUP1 PUSH4 0xB3AB15FB EQ PUSH2 0x43A JUMPI DUP1 PUSH4 0xC1A287E2 EQ PUSH2 0x45C JUMPI PUSH2 0x1CD JUMP JUMPDEST DUP1 PUSH4 0x95D89B41 EQ PUSH2 0x3A2 JUMPI DUP1 PUSH4 0x9DC29FAC EQ PUSH2 0x3B7 JUMPI DUP1 PUSH4 0xA87430BA EQ PUSH2 0x3D7 JUMPI PUSH2 0x1CD JUMP JUMPDEST DUP1 PUSH4 0x4881636D GT PUSH2 0x16F JUMPI DUP1 PUSH4 0x70A08231 GT PUSH2 0x13E JUMPI DUP1 PUSH4 0x70A08231 EQ PUSH2 0x322 JUMPI DUP1 PUSH4 0x7ECEBE00 EQ PUSH2 0x342 JUMPI DUP1 PUSH4 0x80B3B099 EQ PUSH2 0x362 JUMPI DUP1 PUSH4 0x94BF804D EQ PUSH2 0x382 JUMPI PUSH2 0x1CD JUMP JUMPDEST DUP1 PUSH4 0x4881636D EQ PUSH2 0x2B6 JUMPI DUP1 PUSH4 0x570CA735 EQ PUSH2 0x2CB JUMPI DUP1 PUSH4 0x69B41170 EQ PUSH2 0x2ED JUMPI DUP1 PUSH4 0x6DD7D8EA EQ PUSH2 0x302 JUMPI PUSH2 0x1CD JUMP JUMPDEST DUP1 PUSH4 0x23B872DD GT PUSH2 0x1AB JUMPI DUP1 PUSH4 0x23B872DD EQ PUSH2 0x24C JUMPI DUP1 PUSH4 0x313CE567 EQ PUSH2 0x26C JUMPI DUP1 PUSH4 0x3644E515 EQ PUSH2 0x28E JUMPI DUP1 PUSH4 0x3F579F42 EQ PUSH2 0x2A3 JUMPI PUSH2 0x1CD JUMP JUMPDEST DUP1 PUSH4 0x6FDDE03 EQ PUSH2 0x1D2 JUMPI DUP1 PUSH4 0x95EA7B3 EQ PUSH2 0x1FD JUMPI DUP1 PUSH4 0x18160DDD EQ PUSH2 0x22A JUMPI JUMPDEST PUSH1 0x0 DUP1 REVERT JUMPDEST CALLVALUE DUP1 ISZERO PUSH2 0x1DE JUMPI PUSH1 0x0 DUP1 REVERT JUMPDEST POP PUSH2 0x1E7 PUSH2 0x573 JUMP JUMPDEST PUSH1 0x40 MLOAD PUSH2 0x1F4 SWAP2 SWAP1 PUSH2 0x2156 JUMP JUMPDEST PUSH1 0x40 MLOAD DUP1 SWAP2 SUB SWAP1 RETURN JUMPDEST CALLVALUE DUP1 ISZERO PUSH2 0x209 JUMPI PUSH1 0x0 DUP1 REVERT JUMPDEST POP PUSH2 0x21D PUSH2 0x218 CALLDATASIZE PUSH1 0x4 PUSH2 0x1B70 JUMP JUMPDEST PUSH2 0x600 JUMP JUMPDEST PUSH1 0x40 MLOAD PUSH2 0x1F4 SWAP2 SWAP1 PUSH2 0x2083 JUMP JUMPDEST CALLVALUE DUP1 ISZERO PUSH2 0x236 JUMPI PUSH1 0x0 DUP1 REVERT JUMPDEST POP PUSH2 0x23F PUSH2 0x66B JUMP JUMPDEST PUSH1 0x40 MLOAD PUSH2 0x1F4 SWAP2 SWAP1 PUSH2 0x2091 JUMP JUMPDEST CALLVALUE DUP1 ISZERO PUSH2 0x258 JUMPI PUSH1 0x0 DUP1 REVERT JUMPDEST POP PUSH2 0x21D PUSH2 0x267 CALLDATASIZE PUSH1 0x4 PUSH2 0x1A87 JUMP JUMPDEST PUSH2 0x671 JUMP JUMPDEST CALLVALUE DUP1 ISZERO PUSH2 0x278 JUMPI PUSH1 0x0 DUP1 REVERT JUMPDEST POP PUSH2 0x281 PUSH2 0x693 JUMP JUMPDEST PUSH1 0x40 MLOAD PUSH2 0x1F4 SWAP2 SWAP1 PUSH2 0x22DF JUMP JUMPDEST CALLVALUE DUP1 ISZERO PUSH2 0x29A JUMPI PUSH1 0x0 DUP1 REVERT JUMPDEST POP PUSH2 0x23F PUSH2 0x698 JUMP JUMPDEST PUSH2 0x1E7 PUSH2 0x2B1 CALLDATASIZE PUSH1 0x4 PUSH2 0x1BA0 JUMP JUMPDEST PUSH2 0x6A7 JUMP JUMPDEST CALLVALUE DUP1 ISZERO PUSH2 0x2C2 JUMPI PUSH1 0x0 DUP1 REVERT JUMPDEST POP PUSH2 0x23F PUSH2 0x881 JUMP JUMPDEST CALLVALUE DUP1 ISZERO PUSH2 0x2D7 JUMPI PUSH1 0x0 DUP1 REVERT JUMPDEST POP PUSH2 0x2E0 PUSH2 0x887 JUMP JUMPDEST PUSH1 0x40 MLOAD PUSH2 0x1F4 SWAP2 SWAP1 PUSH2 0x1FFC JUMP JUMPDEST CALLVALUE DUP1 ISZERO PUSH2 0x2F9 JUMPI PUSH1 0x0 DUP1 REVERT JUMPDEST POP PUSH2 0x23F PUSH2 0x896 JUMP JUMPDEST CALLVALUE DUP1 ISZERO PUSH2 0x30E JUMPI PUSH1 0x0 DUP1 REVERT JUMPDEST POP PUSH2 0x21D PUSH2 0x31D CALLDATASIZE PUSH1 0x4 PUSH2 0x1A27 JUMP JUMPDEST PUSH2 0x89D JUMP JUMPDEST CALLVALUE DUP1 ISZERO PUSH2 0x32E JUMPI PUSH1 0x0 DUP1 REVERT JUMPDEST POP PUSH2 0x23F PUSH2 0x33D CALLDATASIZE PUSH1 0x4 PUSH2 0x1A27 JUMP JUMPDEST PUSH2 0x97C JUMP JUMPDEST CALLVALUE DUP1 ISZERO PUSH2 0x34E JUMPI PUSH1 0x0 DUP1 REVERT JUMPDEST POP PUSH2 0x23F PUSH2 0x35D CALLDATASIZE PUSH1 0x4 PUSH2 0x1A27 JUMP JUMPDEST PUSH2 0x9A0 JUMP JUMPDEST CALLVALUE DUP1 ISZERO PUSH2 0x36E JUMPI PUSH1 0x0 DUP1 REVERT JUMPDEST POP PUSH2 0x23F PUSH2 0x37D CALLDATASIZE PUSH1 0x4 PUSH2 0x1BA0 JUMP JUMPDEST PUSH2 0x9B2 JUMP JUMPDEST CALLVALUE DUP1 ISZERO PUSH2 0x38E JUMPI PUSH1 0x0 DUP1 REVERT JUMPDEST POP PUSH2 0x21D PUSH2 0x39D CALLDATASIZE PUSH1 0x4 PUSH2 0x1C55 JUMP JUMPDEST PUSH2 0xAB7 JUMP JUMPDEST CALLVALUE DUP1 ISZERO PUSH2 0x3AE JUMPI PUSH1 0x0 DUP1 REVERT JUMPDEST POP PUSH2 0x1E7 PUSH2 0xDEF JUMP JUMPDEST CALLVALUE DUP1 ISZERO PUSH2 0x3C3 JUMPI PUSH1 0x0 DUP1 REVERT JUMPDEST POP PUSH2 0x21D PUSH2 0x3D2 CALLDATASIZE PUSH1 0x4 PUSH2 0x1B70 JUMP JUMPDEST PUSH2 0xE4A JUMP JUMPDEST CALLVALUE DUP1 ISZERO PUSH2 0x3E3 JUMPI PUSH1 0x0 DUP1 REVERT JUMPDEST POP PUSH2 0x3F7 PUSH2 0x3F2 CALLDATASIZE PUSH1 0x4 PUSH2 0x1A27 JUMP JUMPDEST PUSH2 0xE57 JUMP JUMPDEST PUSH1 0x40 MLOAD PUSH2 0x1F4 SWAP3 SWAP2 SWAP1 PUSH2 0x2275 JUMP JUMPDEST CALLVALUE DUP1 ISZERO PUSH2 0x411 JUMPI PUSH1 0x0 DUP1 REVERT JUMPDEST POP PUSH2 0x21D PUSH2 0x420 CALLDATASIZE PUSH1 0x4 PUSH2 0x1B70 JUMP JUMPDEST PUSH2 0xE7D JUMP JUMPDEST CALLVALUE DUP1 ISZERO PUSH2 0x431 JUMPI PUSH1 0x0 DUP1 REVERT JUMPDEST POP PUSH2 0x2E0 PUSH2 0xE8A JUMP JUMPDEST CALLVALUE DUP1 ISZERO PUSH2 0x446 JUMPI PUSH1 0x0 DUP1 REVERT JUMPDEST POP PUSH2 0x45A PUSH2 0x455 CALLDATASIZE PUSH1 0x4 PUSH2 0x1A27 JUMP JUMPDEST PUSH2 0xE99 JUMP JUMPDEST STOP JUMPDEST CALLVALUE DUP1 ISZERO PUSH2 0x468 JUMPI PUSH1 0x0 DUP1 REVERT JUMPDEST POP PUSH2 0x23F PUSH2 0xFEB JUMP JUMPDEST CALLVALUE DUP1 ISZERO PUSH2 0x47D JUMPI PUSH1 0x0 DUP1 REVERT JUMPDEST POP PUSH2 0x45A PUSH2 0x48C CALLDATASIZE PUSH1 0x4 PUSH2 0x1AD4 JUMP JUMPDEST PUSH2 0xFF2 JUMP JUMPDEST CALLVALUE DUP1 ISZERO PUSH2 0x49D JUMPI PUSH1 0x0 DUP1 REVERT JUMPDEST POP PUSH2 0x23F PUSH2 0x4AC CALLDATASIZE PUSH1 0x4 PUSH2 0x1A27 JUMP JUMPDEST PUSH2 0x1193 JUMP JUMPDEST CALLVALUE DUP1 ISZERO PUSH2 0x4BD JUMPI PUSH1 0x0 DUP1 REVERT JUMPDEST POP PUSH2 0x23F PUSH2 0x4CC CALLDATASIZE PUSH1 0x4 PUSH2 0x1A4D JUMP JUMPDEST PUSH2 0x11A5 JUMP JUMPDEST CALLVALUE DUP1 ISZERO PUSH2 0x4DD JUMPI PUSH1 0x0 DUP1 REVERT JUMPDEST POP PUSH2 0x45A PUSH2 0x4EC CALLDATASIZE PUSH1 0x4 PUSH2 0x1BA0 JUMP JUMPDEST PUSH2 0x11C2 JUMP JUMPDEST CALLVALUE DUP1 ISZERO PUSH2 0x4FD JUMPI PUSH1 0x0 DUP1 REVERT JUMPDEST POP PUSH2 0x21D PUSH2 0x50C CALLDATASIZE PUSH1 0x4 PUSH2 0x1A87 JUMP JUMPDEST PUSH2 0x1275 JUMP JUMPDEST CALLVALUE DUP1 ISZERO PUSH2 0x51D JUMPI PUSH1 0x0 DUP1 REVERT JUMPDEST POP PUSH2 0x23F PUSH2 0x52C CALLDATASIZE PUSH1 0x4 PUSH2 0x1C19 JUMP JUMPDEST PUSH2 0x128C JUMP JUMPDEST CALLVALUE DUP1 ISZERO PUSH2 0x53D JUMPI PUSH1 0x0 DUP1 REVERT JUMPDEST POP PUSH2 0x2E0 PUSH2 0x54C CALLDATASIZE PUSH1 0x4 PUSH2 0x1A27 JUMP JUMPDEST PUSH2 0x129E JUMP JUMPDEST CALLVALUE DUP1 ISZERO PUSH2 0x55D JUMPI PUSH1 0x0 DUP1 REVERT JUMPDEST POP PUSH2 0x566 PUSH2 0x12B9 JUMP JUMPDEST PUSH1 0x40 MLOAD PUSH2 0x1F4 SWAP2 SWAP1 PUSH2 0x2167 JUMP JUMPDEST PUSH1 0x1 DUP1 SLOAD PUSH1 0x40 DUP1 MLOAD PUSH1 0x20 PUSH1 0x2 DUP5 DUP7 AND ISZERO PUSH2 0x100 MUL PUSH1 0x0 NOT ADD SWAP1 SWAP5 AND SWAP4 SWAP1 SWAP4 DIV PUSH1 0x1F DUP2 ADD DUP5 SWAP1 DIV DUP5 MUL DUP3 ADD DUP5 ADD SWAP1 SWAP3 MSTORE DUP2 DUP2 MSTORE SWAP3 SWAP2 DUP4 ADD DUP3 DUP3 DUP1 ISZERO PUSH2 0x5F8 JUMPI DUP1 PUSH1 0x1F LT PUSH2 0x5CD JUMPI PUSH2 0x100 DUP1 DUP4 SLOAD DIV MUL DUP4 MSTORE SWAP2 PUSH1 0x20 ADD SWAP2 PUSH2 0x5F8 JUMP JUMPDEST DUP3 ADD SWAP2 SWAP1 PUSH1 0x0 MSTORE PUSH1 0x20 PUSH1 0x0 KECCAK256 SWAP1 JUMPDEST DUP2 SLOAD DUP2 MSTORE SWAP1 PUSH1 0x1 ADD SWAP1 PUSH1 0x20 ADD DUP1 DUP4 GT PUSH2 0x5DB JUMPI DUP3 SWAP1 SUB PUSH1 0x1F AND DUP3 ADD SWAP2 JUMPDEST POP POP POP POP POP DUP2 JUMP JUMPDEST CALLER PUSH1 0x0 DUP2 DUP2 MSTORE PUSH1 0x7 PUSH1 0x20 SWAP1 DUP2 MSTORE PUSH1 0x40 DUP1 DUP4 KECCAK256 PUSH1 0x1 PUSH1 0x1 PUSH1 0xA0 SHL SUB DUP8 AND DUP1 DUP6 MSTORE SWAP3 MSTORE DUP1 DUP4 KECCAK256 DUP6 SWAP1 SSTORE MLOAD SWAP2 SWAP3 SWAP1 SWAP2 PUSH32 0x8C5BE1E5EBEC7D5BD14F71427D1E84F3DD0314C0F7B2291E5B200AC8C7C3B925 SWAP1 PUSH2 0x659 SWAP1 DUP7 SWAP1 PUSH2 0x2091 JUMP JUMPDEST PUSH1 0x40 MLOAD DUP1 SWAP2 SUB SWAP1 LOG3 POP PUSH1 0x1 JUMPDEST SWAP3 SWAP2 POP POP JUMP JUMPDEST PUSH1 0x2 SLOAD DUP2 JUMP JUMPDEST PUSH1 0x0 PUSH2 0x67D DUP5 DUP4 PUSH2 0x12DD JUMP JUMPDEST PUSH2 0x688 DUP5 DUP5 DUP5 PUSH2 0x136E JUMP JUMPDEST POP PUSH1 0x1 JUMPDEST SWAP4 SWAP3 POP POP POP JUMP JUMPDEST PUSH1 0x12 DUP2 JUMP JUMPDEST PUSH1 0x0 PUSH2 0x6A2 PUSH2 0x1598 JUMP JUMPDEST SWAP1 POP SWAP1 JUMP JUMPDEST PUSH1 0x3 SLOAD PUSH1 0x60 SWAP1 PUSH1 0x1 PUSH1 0x1 PUSH1 0xA0 SHL SUB AND CALLER EQ PUSH2 0x6DD JUMPI PUSH1 0x40 MLOAD PUSH3 0x461BCD PUSH1 0xE5 SHL DUP2 MSTORE PUSH1 0x4 ADD PUSH2 0x6D4 SWAP1 PUSH2 0x2225 JUMP JUMPDEST PUSH1 0x40 MLOAD DUP1 SWAP2 SUB SWAP1 REVERT JUMPDEST PUSH1 0x2 DUP1 SLOAD PUSH1 0x3 SLOAD PUSH1 0x1 PUSH1 0x1 PUSH1 0xA0 SHL SUB AND PUSH1 0x0 SWAP1 DUP2 MSTORE PUSH1 0x5 PUSH1 0x20 MSTORE PUSH1 0x40 SWAP1 KECCAK256 SLOAD SWAP1 SWAP2 MUL GT PUSH2 0x71C JUMPI PUSH1 0x40 MLOAD PUSH3 0x461BCD PUSH1 0xE5 SHL DUP2 MSTORE PUSH1 0x4 ADD PUSH2 0x6D4 SWAP1 PUSH2 0x2185 JUMP JUMPDEST PUSH1 0x0 DUP5 DUP5 DUP5 PUSH1 0x40 MLOAD PUSH1 0x20 ADD PUSH2 0x733 SWAP4 SWAP3 SWAP2 SWAP1 PUSH2 0x204D JUMP JUMPDEST PUSH1 0x40 DUP1 MLOAD PUSH1 0x1F NOT DUP2 DUP5 SUB ADD DUP2 MSTORE SWAP2 DUP2 MSTORE DUP2 MLOAD PUSH1 0x20 SWAP3 DUP4 ADD KECCAK256 PUSH1 0x0 DUP2 DUP2 MSTORE PUSH1 0xB SWAP1 SWAP4 MSTORE SWAP2 KECCAK256 SLOAD SWAP1 SWAP2 POP TIMESTAMP DUP2 GT ISZERO PUSH2 0x77B JUMPI PUSH1 0x40 MLOAD PUSH3 0x461BCD PUSH1 0xE5 SHL DUP2 MSTORE PUSH1 0x4 ADD PUSH2 0x6D4 SWAP1 PUSH2 0x2205 JUMP JUMPDEST PUSH3 0x127500 DUP2 ADD TIMESTAMP GT ISZERO PUSH2 0x7A0 JUMPI PUSH1 0x40 MLOAD PUSH3 0x461BCD PUSH1 0xE5 SHL DUP2 MSTORE PUSH1 0x4 ADD PUSH2 0x6D4 SWAP1 PUSH2 0x21E5 JUMP JUMPDEST PUSH1 0x0 DUP3 DUP2 MSTORE PUSH1 0xB PUSH1 0x20 MSTORE PUSH1 0x40 DUP1 DUP3 KECCAK256 DUP3 SWAP1 SSTORE MLOAD PUSH1 0x60 SWAP1 PUSH1 0x1 PUSH1 0x1 PUSH1 0xA0 SHL SUB DUP10 AND SWAP1 DUP9 SWAP1 PUSH2 0x7CE SWAP1 DUP10 SWAP1 PUSH2 0x1FBD JUMP JUMPDEST PUSH1 0x0 PUSH1 0x40 MLOAD DUP1 DUP4 SUB DUP2 DUP6 DUP8 GAS CALL SWAP3 POP POP POP RETURNDATASIZE DUP1 PUSH1 0x0 DUP2 EQ PUSH2 0x80B JUMPI PUSH1 0x40 MLOAD SWAP2 POP PUSH1 0x1F NOT PUSH1 0x3F RETURNDATASIZE ADD AND DUP3 ADD PUSH1 0x40 MSTORE RETURNDATASIZE DUP3 MSTORE RETURNDATASIZE PUSH1 0x0 PUSH1 0x20 DUP5 ADD RETURNDATACOPY PUSH2 0x810 JUMP JUMPDEST PUSH1 0x60 SWAP2 POP JUMPDEST POP SWAP2 POP SWAP2 POP DUP2 PUSH2 0x832 JUMPI PUSH1 0x40 MLOAD PUSH3 0x461BCD PUSH1 0xE5 SHL DUP2 MSTORE PUSH1 0x4 ADD PUSH2 0x6D4 SWAP1 PUSH2 0x2215 JUMP JUMPDEST DUP8 PUSH1 0x1 PUSH1 0x1 PUSH1 0xA0 SHL SUB AND DUP5 PUSH32 0x71F2F703EF5605F99BB79556066217AF28B9D991B829C9F4255E1ABDF873FB4A DUP10 DUP10 PUSH1 0x40 MLOAD PUSH2 0x86E SWAP3 SWAP2 SWAP1 PUSH2 0x2290 JUMP JUMPDEST PUSH1 0x40 MLOAD DUP1 SWAP2 SUB SWAP1 LOG3 SWAP8 SWAP7 POP POP POP POP POP POP POP JUMP JUMPDEST PUSH1 0xA SLOAD DUP2 JUMP JUMPDEST PUSH1 0x3 SLOAD PUSH1 0x1 PUSH1 0x1 PUSH1 0xA0 SHL SUB AND DUP2 JUMP JUMPDEST PUSH3 0x2A300 DUP2 JUMP JUMPDEST CALLER PUSH1 0x0 SWAP1 DUP2 MSTORE PUSH1 0x4 PUSH1 0x20 MSTORE PUSH1 0x40 DUP2 KECCAK256 SLOAD PUSH1 0x1 PUSH1 0x1 PUSH1 0xA0 SHL SUB SWAP1 DUP2 AND SWAP1 DUP4 AND DUP2 EQ PUSH2 0x973 JUMPI PUSH2 0x8C9 PUSH2 0x1985 JUMP JUMPDEST POP CALLER PUSH1 0x0 SWAP1 DUP2 MSTORE PUSH1 0x6 PUSH1 0x20 SWAP1 DUP2 MSTORE PUSH1 0x40 SWAP2 DUP3 SWAP1 KECCAK256 DUP3 MLOAD DUP1 DUP5 ADD SWAP1 SWAP4 MSTORE SLOAD PUSH1 0x1 PUSH1 0x1 PUSH1 0x80 SHL SUB DUP1 DUP3 AND DUP1 DUP6 MSTORE PUSH1 0x1 PUSH1 0x80 SHL SWAP1 SWAP3 DIV AND SWAP2 DUP4 ADD SWAP2 SWAP1 SWAP2 MSTORE ISZERO PUSH2 0x949 JUMPI DUP1 MLOAD PUSH1 0x1 PUSH1 0x1 PUSH1 0xA0 SHL SUB DUP1 DUP5 AND PUSH1 0x0 SWAP1 DUP2 MSTORE PUSH1 0x5 PUSH1 0x20 MSTORE PUSH1 0x40 DUP1 DUP3 KECCAK256 DUP1 SLOAD PUSH1 0x1 PUSH1 0x1 PUSH1 0x80 SHL SUB SWAP6 DUP7 AND SWAP1 SUB SWAP1 SSTORE DUP5 MLOAD SWAP3 DUP9 AND DUP3 MSTORE SWAP1 KECCAK256 DUP1 SLOAD SWAP2 SWAP1 SWAP3 AND ADD SWAP1 SSTORE JUMPDEST POP CALLER PUSH1 0x0 SWAP1 DUP2 MSTORE PUSH1 0x4 PUSH1 0x20 MSTORE PUSH1 0x40 SWAP1 KECCAK256 DUP1 SLOAD PUSH1 0x1 PUSH1 0x1 PUSH1 0xA0 SHL SUB NOT AND PUSH1 0x1 PUSH1 0x1 PUSH1 0xA0 SHL SUB DUP6 AND OR SWAP1 SSTORE JUMPDEST POP PUSH1 0x1 SWAP3 SWAP2 POP POP JUMP JUMPDEST PUSH1 0x1 PUSH1 0x1 PUSH1 0xA0 SHL SUB AND PUSH1 0x0 SWAP1 DUP2 MSTORE PUSH1 0x6 PUSH1 0x20 MSTORE PUSH1 0x40 SWAP1 KECCAK256 SLOAD PUSH1 0x1 PUSH1 0x1 PUSH1 0x80 SHL SUB AND SWAP1 JUMP JUMPDEST PUSH1 0x8 PUSH1 0x20 MSTORE PUSH1 0x0 SWAP1 DUP2 MSTORE PUSH1 0x40 SWAP1 KECCAK256 SLOAD DUP2 JUMP JUMPDEST PUSH1 0x3 SLOAD PUSH1 0x0 SWAP1 PUSH1 0x1 PUSH1 0x1 PUSH1 0xA0 SHL SUB AND CALLER EQ PUSH2 0x9DF JUMPI PUSH1 0x40 MLOAD PUSH3 0x461BCD PUSH1 0xE5 SHL DUP2 MSTORE PUSH1 0x4 ADD PUSH2 0x6D4 SWAP1 PUSH2 0x2225 JUMP JUMPDEST PUSH1 0x2 DUP1 SLOAD PUSH1 0x3 SLOAD PUSH1 0x1 PUSH1 0x1 PUSH1 0xA0 SHL SUB AND PUSH1 0x0 SWAP1 DUP2 MSTORE PUSH1 0x5 PUSH1 0x20 MSTORE PUSH1 0x40 SWAP1 KECCAK256 SLOAD SWAP1 SWAP2 MUL GT PUSH2 0xA1E JUMPI PUSH1 0x40 MLOAD PUSH3 0x461BCD PUSH1 0xE5 SHL DUP2 MSTORE PUSH1 0x4 ADD PUSH2 0x6D4 SWAP1 PUSH2 0x2185 JUMP JUMPDEST PUSH1 0x0 DUP5 DUP5 DUP5 PUSH1 0x40 MLOAD PUSH1 0x20 ADD PUSH2 0xA35 SWAP4 SWAP3 SWAP2 SWAP1 PUSH2 0x204D JUMP JUMPDEST PUSH1 0x40 DUP1 MLOAD PUSH1 0x1F NOT DUP2 DUP5 SUB ADD DUP2 MSTORE DUP3 DUP3 MSTORE DUP1 MLOAD PUSH1 0x20 SWAP2 DUP3 ADD KECCAK256 PUSH1 0x0 DUP2 DUP2 MSTORE PUSH1 0xB SWAP1 SWAP3 MSTORE SWAP2 SWAP1 KECCAK256 TIMESTAMP PUSH3 0x2A300 ADD SWAP1 DUP2 SWAP1 SSTORE SWAP1 SWAP3 POP SWAP1 PUSH1 0x1 PUSH1 0x1 PUSH1 0xA0 SHL SUB DUP8 AND SWAP1 DUP4 SWAP1 PUSH32 0x9FFDF0C63C8EEC344B500E806AC1D1D37308FDF141A29D10CDD82C069AEC6E48 SWAP1 PUSH2 0xAA6 SWAP1 DUP10 SWAP1 DUP10 SWAP1 DUP8 SWAP1 PUSH2 0x22B0 JUMP JUMPDEST PUSH1 0x40 MLOAD DUP1 SWAP2 SUB SWAP1 LOG3 POP SWAP5 SWAP4 POP POP POP POP JUMP JUMPDEST PUSH1 0x0 CALLER PUSH2 0xAD6 JUMPI PUSH1 0x40 MLOAD PUSH3 0x461BCD PUSH1 0xE5 SHL DUP2 MSTORE PUSH1 0x4 ADD PUSH2 0x6D4 SWAP1 PUSH2 0x21D5 JUMP JUMPDEST PUSH2 0xADE PUSH2 0x1985 JUMP JUMPDEST POP CALLER PUSH1 0x0 SWAP1 DUP2 MSTORE PUSH1 0x6 PUSH1 0x20 SWAP1 DUP2 MSTORE PUSH1 0x40 DUP1 DUP4 KECCAK256 DUP2 MLOAD DUP1 DUP4 ADD DUP4 MSTORE SWAP1 SLOAD PUSH1 0x1 PUSH1 0x1 PUSH1 0x80 SHL SUB DUP1 DUP3 AND DUP4 MSTORE PUSH1 0x1 PUSH1 0x80 SHL SWAP1 SWAP2 DIV AND SWAP3 DUP2 ADD SWAP3 SWAP1 SWAP3 MSTORE MLOAD PUSH4 0x70A08231 PUSH1 0xE0 SHL DUP2 MSTORE SWAP1 SWAP2 SWAP1 PUSH32 0x0 PUSH1 0x1 PUSH1 0x1 PUSH1 0xA0 SHL SUB AND SWAP1 PUSH4 0x70A08231 SWAP1 PUSH2 0xB64 SWAP1 ADDRESS SWAP1 PUSH1 0x4 ADD PUSH2 0x1FFC JUMP JUMPDEST PUSH1 0x20 PUSH1 0x40 MLOAD DUP1 DUP4 SUB DUP2 DUP7 DUP1 EXTCODESIZE ISZERO DUP1 ISZERO PUSH2 0xB7C JUMPI PUSH1 0x0 DUP1 REVERT JUMPDEST POP GAS STATICCALL ISZERO DUP1 ISZERO PUSH2 0xB90 JUMPI RETURNDATASIZE PUSH1 0x0 DUP1 RETURNDATACOPY RETURNDATASIZE PUSH1 0x0 REVERT JUMPDEST POP POP POP POP PUSH1 0x40 MLOAD RETURNDATASIZE PUSH1 0x1F NOT PUSH1 0x1F DUP3 ADD AND DUP3 ADD DUP1 PUSH1 0x40 MSTORE POP DUP2 ADD SWAP1 PUSH2 0xBB4 SWAP2 SWAP1 PUSH2 0x1C37 JUMP JUMPDEST SWAP1 POP PUSH1 0x0 PUSH1 0x2 SLOAD PUSH1 0x0 EQ PUSH2 0xBD5 JUMPI DUP2 PUSH1 0x2 SLOAD DUP8 MUL DUP2 PUSH2 0xBCF JUMPI INVALID JUMPDEST DIV PUSH2 0xBD7 JUMP JUMPDEST DUP6 JUMPDEST CALLER PUSH1 0x0 SWAP1 DUP2 MSTORE PUSH1 0x4 PUSH1 0x20 MSTORE PUSH1 0x40 SWAP1 KECCAK256 SLOAD SWAP1 SWAP2 POP PUSH1 0x1 PUSH1 0x1 PUSH1 0xA0 SHL SUB SWAP1 DUP2 AND SWAP1 DUP3 SWAP1 DUP8 AND DUP3 EQ PUSH2 0xC69 JUMPI DUP5 MLOAD PUSH1 0x1 PUSH1 0x1 PUSH1 0x80 SHL SUB AND ISZERO PUSH2 0xC40 JUMPI DUP5 MLOAD PUSH1 0x1 PUSH1 0x1 PUSH1 0xA0 SHL SUB DUP4 AND PUSH1 0x0 SWAP1 DUP2 MSTORE PUSH1 0x5 PUSH1 0x20 MSTORE PUSH1 0x40 SWAP1 KECCAK256 DUP1 SLOAD PUSH1 0x1 PUSH1 0x1 PUSH1 0x80 SHL SUB SWAP3 DUP4 AND SWAP1 SUB SWAP1 SSTORE DUP6 MLOAD AND ADD JUMPDEST CALLER PUSH1 0x0 SWAP1 DUP2 MSTORE PUSH1 0x4 PUSH1 0x20 MSTORE PUSH1 0x40 SWAP1 KECCAK256 DUP1 SLOAD PUSH1 0x1 PUSH1 0x1 PUSH1 0xA0 SHL SUB NOT AND PUSH1 0x1 PUSH1 0x1 PUSH1 0xA0 SHL SUB DUP10 AND OR SWAP1 SSTORE JUMPDEST PUSH1 0x1 PUSH1 0x1 PUSH1 0xA0 SHL SUB DUP8 AND PUSH1 0x0 SWAP1 DUP2 MSTORE PUSH1 0x5 PUSH1 0x20 MSTORE PUSH1 0x40 SWAP1 KECCAK256 DUP1 SLOAD DUP3 ADD SWAP1 SSTORE PUSH2 0xC90 DUP4 PUSH2 0x15F8 JUMP JUMPDEST DUP6 MLOAD ADD PUSH1 0x1 PUSH1 0x1 PUSH1 0x80 SHL SUB AND DUP6 MSTORE PUSH2 0xCAC TIMESTAMP PUSH3 0x15180 ADD PUSH2 0x15F8 JUMP JUMPDEST PUSH1 0x1 PUSH1 0x1 PUSH1 0x80 SHL SUB SWAP1 DUP2 AND PUSH1 0x20 DUP1 DUP9 ADD SWAP2 DUP3 MSTORE CALLER PUSH1 0x0 DUP2 DUP2 MSTORE PUSH1 0x6 SWAP1 SWAP3 MSTORE PUSH1 0x40 SWAP2 DUP3 SWAP1 KECCAK256 DUP10 MLOAD DUP2 SLOAD SWAP5 MLOAD DUP7 AND PUSH1 0x1 PUSH1 0x80 SHL MUL SWAP1 DUP7 AND PUSH1 0x1 PUSH1 0x1 PUSH1 0x80 SHL SUB NOT SWAP1 SWAP6 AND SWAP5 SWAP1 SWAP5 OR SWAP1 SWAP5 AND SWAP3 SWAP1 SWAP3 OR SWAP1 SWAP3 SSTORE PUSH1 0x2 DUP1 SLOAD DUP7 ADD SWAP1 SSTORE SWAP1 MLOAD PUSH4 0x23B872DD PUSH1 0xE0 SHL DUP2 MSTORE PUSH32 0x0 PUSH1 0x1 PUSH1 0x1 PUSH1 0xA0 SHL SUB AND SWAP2 PUSH4 0x23B872DD SWAP2 PUSH2 0xD51 SWAP2 SWAP1 ADDRESS SWAP1 DUP14 SWAP1 PUSH1 0x4 ADD PUSH2 0x200A JUMP JUMPDEST PUSH1 0x20 PUSH1 0x40 MLOAD DUP1 DUP4 SUB DUP2 PUSH1 0x0 DUP8 DUP1 EXTCODESIZE ISZERO DUP1 ISZERO PUSH2 0xD6B JUMPI PUSH1 0x0 DUP1 REVERT JUMPDEST POP GAS CALL ISZERO DUP1 ISZERO PUSH2 0xD7F JUMPI RETURNDATASIZE PUSH1 0x0 DUP1 RETURNDATACOPY RETURNDATASIZE PUSH1 0x0 REVERT JUMPDEST POP POP POP POP PUSH1 0x40 MLOAD RETURNDATASIZE PUSH1 0x1F NOT PUSH1 0x1F DUP3 ADD AND DUP3 ADD DUP1 PUSH1 0x40 MSTORE POP DUP2 ADD SWAP1 PUSH2 0xDA3 SWAP2 SWAP1 PUSH2 0x1BFB JUMP JUMPDEST POP PUSH1 0x40 MLOAD CALLER SWAP1 PUSH1 0x0 SWAP1 PUSH32 0xDDF252AD1BE2C89B69C2B068FC378DAA952BA7F163C4A11628F55A4DF523B3EF SWAP1 PUSH2 0xDD9 SWAP1 DUP8 SWAP1 PUSH2 0x2091 JUMP JUMPDEST PUSH1 0x40 MLOAD DUP1 SWAP2 SUB SWAP1 LOG3 POP PUSH1 0x1 SWAP8 SWAP7 POP POP POP POP POP POP POP JUMP JUMPDEST PUSH1 0x0 DUP1 SLOAD PUSH1 0x40 DUP1 MLOAD PUSH1 0x20 PUSH1 0x2 PUSH1 0x1 DUP6 AND ISZERO PUSH2 0x100 MUL PUSH1 0x0 NOT ADD SWAP1 SWAP5 AND SWAP4 SWAP1 SWAP4 DIV PUSH1 0x1F DUP2 ADD DUP5 SWAP1 DIV DUP5 MUL DUP3 ADD DUP5 ADD SWAP1 SWAP3 MSTORE DUP2 DUP2 MSTORE SWAP3 SWAP2 DUP4 ADD DUP3 DUP3 DUP1 ISZERO PUSH2 0x5F8 JUMPI DUP1 PUSH1 0x1F LT PUSH2 0x5CD JUMPI PUSH2 0x100 DUP1 DUP4 SLOAD DIV MUL DUP4 MSTORE SWAP2 PUSH1 0x20 ADD SWAP2 PUSH2 0x5F8 JUMP JUMPDEST PUSH1 0x0 PUSH2 0x973 CALLER DUP5 DUP5 PUSH2 0x1625 JUMP JUMPDEST PUSH1 0x6 PUSH1 0x20 MSTORE PUSH1 0x0 SWAP1 DUP2 MSTORE PUSH1 0x40 SWAP1 KECCAK256 SLOAD PUSH1 0x1 PUSH1 0x1 PUSH1 0x80 SHL SUB DUP1 DUP3 AND SWAP2 PUSH1 0x1 PUSH1 0x80 SHL SWAP1 DIV AND DUP3 JUMP JUMPDEST PUSH1 0x0 PUSH2 0x973 CALLER DUP5 DUP5 PUSH2 0x136E JUMP JUMPDEST PUSH1 0x9 SLOAD PUSH1 0x1 PUSH1 0x1 PUSH1 0xA0 SHL SUB AND DUP2 JUMP JUMPDEST PUSH1 0x1 PUSH1 0x1 PUSH1 0xA0 SHL SUB DUP2 AND PUSH2 0xEBF JUMPI PUSH1 0x40 MLOAD PUSH3 0x461BCD PUSH1 0xE5 SHL DUP2 MSTORE PUSH1 0x4 ADD PUSH2 0x6D4 SWAP1 PUSH2 0x21B5 JUMP JUMPDEST PUSH1 0x0 DUP1 MSTORE PUSH1 0x5 PUSH1 0x20 MSTORE PUSH32 0x5B8CCBB9D4D8FB16EA74CE3C29A41F1B461FBDAFF4714A0D9A8EB05499746BC SLOAD PUSH1 0x2 SLOAD PUSH1 0x9 SLOAD SWAP2 SWAP1 SUB SWAP1 PUSH1 0x1 PUSH1 0x1 PUSH1 0xA0 SHL SUB DUP4 DUP2 AND SWAP2 AND EQ PUSH2 0xF69 JUMPI PUSH1 0x1 PUSH1 0x1 PUSH1 0xA0 SHL SUB DUP3 AND PUSH1 0x0 SWAP1 DUP2 MSTORE PUSH1 0x5 PUSH1 0x20 MSTORE PUSH1 0x40 SWAP1 KECCAK256 SLOAD PUSH1 0x2 MUL DUP2 LT PUSH2 0xF40 JUMPI PUSH1 0x40 MLOAD PUSH3 0x461BCD PUSH1 0xE5 SHL DUP2 MSTORE PUSH1 0x4 ADD PUSH2 0x6D4 SWAP1 PUSH2 0x2185 JUMP JUMPDEST PUSH1 0x9 DUP1 SLOAD PUSH1 0x1 PUSH1 0x1 PUSH1 0xA0 SHL SUB NOT AND PUSH1 0x1 PUSH1 0x1 PUSH1 0xA0 SHL SUB DUP5 AND OR SWAP1 SSTORE TIMESTAMP PUSH3 0x93A80 ADD PUSH1 0xA SSTORE PUSH2 0xFE7 JUMP JUMPDEST PUSH1 0x1 PUSH1 0x1 PUSH1 0xA0 SHL SUB DUP3 AND PUSH1 0x0 SWAP1 DUP2 MSTORE PUSH1 0x5 PUSH1 0x20 MSTORE PUSH1 0x40 SWAP1 KECCAK256 SLOAD PUSH1 0x2 MUL DUP2 LT ISZERO PUSH2 0xFD1 JUMPI PUSH1 0xA SLOAD TIMESTAMP LT ISZERO PUSH2 0xFAE JUMPI PUSH1 0x40 MLOAD PUSH3 0x461BCD PUSH1 0xE5 SHL DUP2 MSTORE PUSH1 0x4 ADD PUSH2 0x6D4 SWAP1 PUSH2 0x2265 JUMP JUMPDEST PUSH1 0x9 SLOAD PUSH1 0x3 DUP1 SLOAD PUSH1 0x1 PUSH1 0x1 PUSH1 0xA0 SHL SUB NOT AND PUSH1 0x1 PUSH1 0x1 PUSH1 0xA0 SHL SUB SWAP1 SWAP3 AND SWAP2 SWAP1 SWAP2 OR SWAP1 SSTORE JUMPDEST PUSH1 0x9 DUP1 SLOAD PUSH1 0x1 PUSH1 0x1 PUSH1 0xA0 SHL SUB NOT AND SWAP1 SSTORE PUSH1 0x0 PUSH1 0xA SSTORE JUMPDEST POP POP JUMP JUMPDEST PUSH3 0x127500 DUP2 JUMP JUMPDEST PUSH1 0x1 PUSH1 0x1 PUSH1 0xA0 SHL SUB DUP8 AND PUSH2 0x1018 JUMPI PUSH1 0x40 MLOAD PUSH3 0x461BCD PUSH1 0xE5 SHL DUP2 MSTORE PUSH1 0x4 ADD PUSH2 0x6D4 SWAP1 PUSH2 0x2245 JUMP JUMPDEST DUP4 TIMESTAMP LT PUSH2 0x1037 JUMPI PUSH1 0x40 MLOAD PUSH3 0x461BCD PUSH1 0xE5 SHL DUP2 MSTORE PUSH1 0x4 ADD PUSH2 0x6D4 SWAP1 PUSH2 0x2255 JUMP JUMPDEST PUSH1 0x1 PUSH1 0x1 PUSH1 0xA0 SHL SUB DUP8 AND PUSH1 0x0 DUP2 DUP2 MSTORE PUSH1 0x8 PUSH1 0x20 SWAP1 DUP2 MSTORE PUSH1 0x40 SWAP2 DUP3 SWAP1 KECCAK256 DUP1 SLOAD PUSH1 0x1 DUP2 DUP2 ADD SWAP1 SWAP3 SSTORE SWAP3 MLOAD SWAP1 SWAP3 PUSH2 0x10B5 SWAP3 PUSH2 0x109A SWAP3 PUSH32 0x6E71EDAE12B1B97F4D1F60370FEF10105FA2FAAE0126114A169C64845D6126C9 SWAP3 DUP15 SWAP3 DUP15 SWAP3 DUP15 SWAP3 SWAP2 DUP15 SWAP2 ADD PUSH2 0x209F JUMP JUMPDEST PUSH1 0x40 MLOAD PUSH1 0x20 DUP2 DUP4 SUB SUB DUP2 MSTORE SWAP1 PUSH1 0x40 MSTORE DUP1 MLOAD SWAP1 PUSH1 0x20 ADD KECCAK256 PUSH2 0x18CA JUMP JUMPDEST DUP6 DUP6 DUP6 PUSH1 0x40 MLOAD PUSH1 0x0 DUP2 MSTORE PUSH1 0x20 ADD PUSH1 0x40 MSTORE PUSH1 0x40 MLOAD PUSH2 0x10D5 SWAP5 SWAP4 SWAP3 SWAP2 SWAP1 PUSH2 0x2121 JUMP JUMPDEST PUSH1 0x20 PUSH1 0x40 MLOAD PUSH1 0x20 DUP2 SUB SWAP1 DUP1 DUP5 SUB SWAP1 DUP6 GAS STATICCALL ISZERO DUP1 ISZERO PUSH2 0x10F7 JUMPI RETURNDATASIZE PUSH1 0x0 DUP1 RETURNDATACOPY RETURNDATASIZE PUSH1 0x0 REVERT JUMPDEST POP POP POP PUSH1 0x20 PUSH1 0x40 MLOAD SUB MLOAD PUSH1 0x1 PUSH1 0x1 PUSH1 0xA0 SHL SUB AND EQ PUSH2 0x1127 JUMPI PUSH1 0x40 MLOAD PUSH3 0x461BCD PUSH1 0xE5 SHL DUP2 MSTORE PUSH1 0x4 ADD PUSH2 0x6D4 SWAP1 PUSH2 0x2235 JUMP JUMPDEST PUSH1 0x1 PUSH1 0x1 PUSH1 0xA0 SHL SUB DUP1 DUP9 AND PUSH1 0x0 DUP2 DUP2 MSTORE PUSH1 0x7 PUSH1 0x20 SWAP1 DUP2 MSTORE PUSH1 0x40 DUP1 DUP4 KECCAK256 SWAP5 DUP12 AND DUP1 DUP5 MSTORE SWAP5 SWAP1 SWAP2 MSTORE SWAP1 DUP2 SWAP1 KECCAK256 DUP9 SWAP1 SSTORE MLOAD PUSH32 0x8C5BE1E5EBEC7D5BD14F71427D1E84F3DD0314C0F7B2291E5B200AC8C7C3B925 SWAP1 PUSH2 0x1182 SWAP1 DUP10 SWAP1 PUSH2 0x2091 JUMP JUMPDEST PUSH1 0x40 MLOAD DUP1 SWAP2 SUB SWAP1 LOG3 POP POP POP POP POP POP POP JUMP JUMPDEST PUSH1 0x5 PUSH1 0x20 MSTORE PUSH1 0x0 SWAP1 DUP2 MSTORE PUSH1 0x40 SWAP1 KECCAK256 SLOAD DUP2 JUMP JUMPDEST PUSH1 0x7 PUSH1 0x20 SWAP1 DUP2 MSTORE PUSH1 0x0 SWAP3 DUP4 MSTORE PUSH1 0x40 DUP1 DUP5 KECCAK256 SWAP1 SWAP2 MSTORE SWAP1 DUP3 MSTORE SWAP1 KECCAK256 SLOAD DUP2 JUMP JUMPDEST PUSH1 0x3 SLOAD PUSH1 0x1 PUSH1 0x1 PUSH1 0xA0 SHL SUB AND CALLER EQ PUSH2 0x11EC JUMPI PUSH1 0x40 MLOAD PUSH3 0x461BCD PUSH1 0xE5 SHL DUP2 MSTORE PUSH1 0x4 ADD PUSH2 0x6D4 SWAP1 PUSH2 0x2225 JUMP JUMPDEST PUSH1 0x0 DUP4 DUP4 DUP4 PUSH1 0x40 MLOAD PUSH1 0x20 ADD PUSH2 0x1203 SWAP4 SWAP3 SWAP2 SWAP1 PUSH2 0x204D JUMP JUMPDEST PUSH1 0x40 DUP1 MLOAD PUSH1 0x1F NOT DUP2 DUP5 SUB ADD DUP2 MSTORE DUP3 DUP3 MSTORE DUP1 MLOAD PUSH1 0x20 SWAP2 DUP3 ADD KECCAK256 PUSH1 0x0 DUP2 DUP2 MSTORE PUSH1 0xB SWAP1 SWAP3 MSTORE SWAP2 DUP2 KECCAK256 SSTORE SWAP2 POP PUSH1 0x1 PUSH1 0x1 PUSH1 0xA0 SHL SUB DUP6 AND SWAP1 DUP3 SWAP1 PUSH32 0x7666FC3824E27FFF7F62ADC190ADF39D59915B1634803F46F6002F5A071DE7F7 SWAP1 PUSH2 0x1267 SWAP1 DUP8 SWAP1 DUP8 SWAP1 PUSH2 0x2290 JUMP JUMPDEST PUSH1 0x40 MLOAD DUP1 SWAP2 SUB SWAP1 LOG3 POP POP POP POP JUMP JUMPDEST PUSH1 0x0 PUSH2 0x1281 DUP5 DUP4 PUSH2 0x12DD JUMP JUMPDEST PUSH2 0x688 DUP5 DUP5 DUP5 PUSH2 0x1625 JUMP JUMPDEST PUSH1 0xB PUSH1 0x20 MSTORE PUSH1 0x0 SWAP1 DUP2 MSTORE PUSH1 0x40 SWAP1 KECCAK256 SLOAD DUP2 JUMP JUMPDEST PUSH1 0x4 PUSH1 0x20 MSTORE PUSH1 0x0 SWAP1 DUP2 MSTORE PUSH1 0x40 SWAP1 KECCAK256 SLOAD PUSH1 0x1 PUSH1 0x1 PUSH1 0xA0 SHL SUB AND DUP2 JUMP JUMPDEST PUSH32 0x0 DUP2 JUMP JUMPDEST CALLER PUSH1 0x1 PUSH1 0x1 PUSH1 0xA0 SHL SUB DUP4 AND EQ ISZERO PUSH2 0x12F3 JUMPI PUSH2 0xFE7 JUMP JUMPDEST PUSH1 0x1 PUSH1 0x1 PUSH1 0xA0 SHL SUB DUP3 AND PUSH1 0x0 SWAP1 DUP2 MSTORE PUSH1 0x7 PUSH1 0x20 SWAP1 DUP2 MSTORE PUSH1 0x40 DUP1 DUP4 KECCAK256 CALLER DUP5 MSTORE SWAP1 SWAP2 MSTORE SWAP1 KECCAK256 SLOAD PUSH1 0x0 NOT DUP2 EQ PUSH2 0x1369 JUMPI DUP2 DUP2 LT ISZERO PUSH2 0x1340 JUMPI PUSH1 0x40 MLOAD PUSH3 0x461BCD PUSH1 0xE5 SHL DUP2 MSTORE PUSH1 0x4 ADD PUSH2 0x6D4 SWAP1 PUSH2 0x21A5 JUMP JUMPDEST PUSH1 0x1 PUSH1 0x1 PUSH1 0xA0 SHL SUB DUP4 AND PUSH1 0x0 SWAP1 DUP2 MSTORE PUSH1 0x7 PUSH1 0x20 SWAP1 DUP2 MSTORE PUSH1 0x40 DUP1 DUP4 KECCAK256 CALLER DUP5 MSTORE SWAP1 SWAP2 MSTORE SWAP1 KECCAK256 DUP3 DUP3 SUB SWAP1 SSTORE JUMPDEST POP POP POP JUMP JUMPDEST PUSH2 0x1376 PUSH2 0x1985 JUMP JUMPDEST POP PUSH1 0x1 PUSH1 0x1 PUSH1 0xA0 SHL SUB DUP4 AND PUSH1 0x0 SWAP1 DUP2 MSTORE PUSH1 0x6 PUSH1 0x20 SWAP1 DUP2 MSTORE PUSH1 0x40 SWAP2 DUP3 SWAP1 KECCAK256 DUP3 MLOAD DUP1 DUP5 ADD SWAP1 SWAP4 MSTORE SLOAD PUSH1 0x1 PUSH1 0x1 PUSH1 0x80 SHL SUB DUP1 DUP3 AND DUP5 MSTORE PUSH1 0x1 PUSH1 0x80 SHL SWAP1 SWAP2 DIV AND SWAP1 DUP3 ADD DUP2 SWAP1 MSTORE TIMESTAMP LT ISZERO PUSH2 0x13D7 JUMPI PUSH1 0x40 MLOAD PUSH3 0x461BCD PUSH1 0xE5 SHL DUP2 MSTORE PUSH1 0x4 ADD PUSH2 0x6D4 SWAP1 PUSH2 0x2195 JUMP JUMPDEST DUP2 ISZERO PUSH2 0x1555 JUMPI DUP1 MLOAD PUSH1 0x1 PUSH1 0x1 PUSH1 0x80 SHL SUB AND DUP3 GT ISZERO PUSH2 0x1407 JUMPI PUSH1 0x40 MLOAD PUSH3 0x461BCD PUSH1 0xE5 SHL DUP2 MSTORE PUSH1 0x4 ADD PUSH2 0x6D4 SWAP1 PUSH2 0x21C5 JUMP JUMPDEST DUP3 PUSH1 0x1 PUSH1 0x1 PUSH1 0xA0 SHL SUB AND DUP5 PUSH1 0x1 PUSH1 0x1 PUSH1 0xA0 SHL SUB AND EQ PUSH2 0x1555 JUMPI PUSH1 0x1 PUSH1 0x1 PUSH1 0xA0 SHL SUB DUP4 AND PUSH2 0x1446 JUMPI PUSH1 0x40 MLOAD PUSH3 0x461BCD PUSH1 0xE5 SHL DUP2 MSTORE PUSH1 0x4 ADD PUSH2 0x6D4 SWAP1 PUSH2 0x21D5 JUMP JUMPDEST PUSH2 0x144E PUSH2 0x1985 JUMP JUMPDEST POP PUSH1 0x1 PUSH1 0x1 PUSH1 0xA0 SHL SUB DUP1 DUP5 AND PUSH1 0x0 DUP2 DUP2 MSTORE PUSH1 0x6 PUSH1 0x20 SWAP1 DUP2 MSTORE PUSH1 0x40 DUP1 DUP4 KECCAK256 DUP2 MLOAD DUP1 DUP4 ADD DUP4 MSTORE SWAP1 SLOAD PUSH1 0x1 PUSH1 0x1 PUSH1 0x80 SHL SUB DUP1 DUP3 AND DUP4 MSTORE PUSH1 0x1 PUSH1 0x80 SHL SWAP1 SWAP2 DIV AND DUP2 DUP5 ADD MSTORE SWAP4 DUP4 MSTORE PUSH1 0x4 SWAP1 SWAP2 MSTORE DUP1 DUP3 KECCAK256 SLOAD DUP9 DUP6 AND DUP4 MSTORE SWAP2 KECCAK256 SLOAD SWAP2 SWAP3 SWAP1 DUP2 AND SWAP2 AND PUSH2 0x14B2 DUP6 PUSH2 0x15F8 JUMP JUMPDEST DUP5 MLOAD PUSH1 0x1 PUSH1 0x1 PUSH1 0xA0 SHL SUB DUP10 AND PUSH1 0x0 SWAP1 DUP2 MSTORE PUSH1 0x6 PUSH1 0x20 MSTORE PUSH1 0x40 SWAP1 KECCAK256 DUP1 SLOAD PUSH1 0x1 PUSH1 0x1 PUSH1 0x80 SHL SUB NOT AND SWAP3 SWAP1 SWAP2 SUB PUSH1 0x1 PUSH1 0x1 PUSH1 0x80 SHL SUB AND SWAP2 SWAP1 SWAP2 OR SWAP1 SSTORE PUSH2 0x14F4 DUP6 PUSH2 0x15F8 JUMP JUMPDEST SWAP3 MLOAD PUSH1 0x1 PUSH1 0x1 PUSH1 0xA0 SHL SUB DUP8 DUP2 AND PUSH1 0x0 SWAP1 DUP2 MSTORE PUSH1 0x6 PUSH1 0x20 SWAP1 DUP2 MSTORE PUSH1 0x40 DUP1 DUP4 KECCAK256 DUP1 SLOAD PUSH1 0x1 PUSH1 0x1 PUSH1 0x80 SHL SUB NOT AND SWAP6 SWAP1 SWAP9 ADD PUSH1 0x1 PUSH1 0x1 PUSH1 0x80 SHL SUB AND SWAP5 SWAP1 SWAP5 OR SWAP1 SWAP7 SSTORE SWAP3 DUP2 AND DUP4 MSTORE PUSH1 0x5 SWAP1 SWAP5 MSTORE DUP1 DUP3 KECCAK256 DUP1 SLOAD DUP8 SWAP1 SUB SWAP1 SSTORE SWAP2 SWAP1 SWAP3 AND DUP3 MSTORE SWAP1 KECCAK256 DUP1 SLOAD DUP4 ADD SWAP1 SSTORE JUMPDEST DUP3 PUSH1 0x1 PUSH1 0x1 PUSH1 0xA0 SHL SUB AND DUP5 PUSH1 0x1 PUSH1 0x1 PUSH1 0xA0 SHL SUB AND PUSH32 0xDDF252AD1BE2C89B69C2B068FC378DAA952BA7F163C4A11628F55A4DF523B3EF DUP5 PUSH1 0x40 MLOAD PUSH2 0x1267 SWAP2 SWAP1 PUSH2 0x2091 JUMP JUMPDEST PUSH1 0x0 CHAINID PUSH32 0x0 DUP2 EQ PUSH2 0x15D0 JUMPI PUSH2 0x15CB DUP2 PUSH2 0x191F JUMP JUMPDEST PUSH2 0x15F2 JUMP JUMPDEST PUSH32 0x0 JUMPDEST SWAP2 POP POP SWAP1 JUMP JUMPDEST PUSH1 0x0 PUSH1 0x1 PUSH1 0x1 PUSH1 0x80 SHL SUB DUP3 GT ISZERO PUSH2 0x1621 JUMPI PUSH1 0x40 MLOAD PUSH3 0x461BCD PUSH1 0xE5 SHL DUP2 MSTORE PUSH1 0x4 ADD PUSH2 0x6D4 SWAP1 PUSH2 0x21F5 JUMP JUMPDEST POP SWAP1 JUMP JUMPDEST PUSH1 0x1 PUSH1 0x1 PUSH1 0xA0 SHL SUB DUP3 AND PUSH2 0x164B JUMPI PUSH1 0x40 MLOAD PUSH3 0x461BCD PUSH1 0xE5 SHL DUP2 MSTORE PUSH1 0x4 ADD PUSH2 0x6D4 SWAP1 PUSH2 0x21D5 JUMP JUMPDEST PUSH2 0x1653 PUSH2 0x1985 JUMP JUMPDEST POP PUSH1 0x1 PUSH1 0x1 PUSH1 0xA0 SHL SUB DUP4 AND PUSH1 0x0 SWAP1 DUP2 MSTORE PUSH1 0x6 PUSH1 0x20 SWAP1 DUP2 MSTORE PUSH1 0x40 SWAP2 DUP3 SWAP1 KECCAK256 DUP3 MLOAD DUP1 DUP5 ADD SWAP1 SWAP4 MSTORE SLOAD PUSH1 0x1 PUSH1 0x1 PUSH1 0x80 SHL SUB DUP1 DUP3 AND DUP5 MSTORE PUSH1 0x1 PUSH1 0x80 SHL SWAP1 SWAP2 DIV AND SWAP1 DUP3 ADD DUP2 SWAP1 MSTORE TIMESTAMP LT ISZERO PUSH2 0x16B4 JUMPI PUSH1 0x40 MLOAD PUSH3 0x461BCD PUSH1 0xE5 SHL DUP2 MSTORE PUSH1 0x4 ADD PUSH2 0x6D4 SWAP1 PUSH2 0x2195 JUMP JUMPDEST PUSH1 0x0 PUSH1 0x2 SLOAD PUSH32 0x0 PUSH1 0x1 PUSH1 0x1 PUSH1 0xA0 SHL SUB AND PUSH4 0x70A08231 ADDRESS PUSH1 0x40 MLOAD DUP3 PUSH4 0xFFFFFFFF AND PUSH1 0xE0 SHL DUP2 MSTORE PUSH1 0x4 ADD PUSH2 0x1705 SWAP2 SWAP1 PUSH2 0x1FFC JUMP JUMPDEST PUSH1 0x20 PUSH1 0x40 MLOAD DUP1 DUP4 SUB DUP2 DUP7 DUP1 EXTCODESIZE ISZERO DUP1 ISZERO PUSH2 0x171D JUMPI PUSH1 0x0 DUP1 REVERT JUMPDEST POP GAS STATICCALL ISZERO DUP1 ISZERO PUSH2 0x1731 JUMPI RETURNDATASIZE PUSH1 0x0 DUP1 RETURNDATACOPY RETURNDATASIZE PUSH1 0x0 REVERT JUMPDEST POP POP POP POP PUSH1 0x40 MLOAD RETURNDATASIZE PUSH1 0x1F NOT PUSH1 0x1F DUP3 ADD AND DUP3 ADD DUP1 PUSH1 0x40 MSTORE POP DUP2 ADD SWAP1 PUSH2 0x1755 SWAP2 SWAP1 PUSH2 0x1C37 JUMP JUMPDEST DUP5 MUL DUP2 PUSH2 0x175E JUMPI INVALID JUMPDEST DIV SWAP1 POP PUSH2 0x177E PUSH2 0x176D DUP5 PUSH2 0x15F8 JUMP JUMPDEST DUP4 MLOAD PUSH1 0x1 PUSH1 0x1 PUSH1 0x80 SHL SUB AND SWAP1 PUSH2 0x1956 JUMP JUMPDEST PUSH1 0x1 PUSH1 0x1 PUSH1 0xA0 SHL SUB DUP7 DUP2 AND PUSH1 0x0 SWAP1 DUP2 MSTORE PUSH1 0x6 PUSH1 0x20 SWAP1 DUP2 MSTORE PUSH1 0x40 DUP1 DUP4 KECCAK256 DUP1 SLOAD PUSH1 0x1 PUSH1 0x1 PUSH1 0x80 SHL SUB NOT AND PUSH1 0x1 PUSH1 0x1 PUSH1 0x80 SHL SUB SWAP7 SWAP1 SWAP7 AND SWAP6 SWAP1 SWAP6 OR SWAP1 SWAP5 SSTORE PUSH1 0x2 DUP1 SLOAD DUP9 SWAP1 SUB SWAP1 SSTORE PUSH1 0x4 DUP1 DUP3 MSTORE DUP5 DUP4 KECCAK256 SLOAD DUP5 AND DUP4 MSTORE PUSH1 0x5 SWAP1 SWAP2 MSTORE SWAP1 DUP4 SWAP1 KECCAK256 DUP1 SLOAD DUP8 SWAP1 SUB SWAP1 SSTORE SWAP2 MLOAD PUSH4 0xA9059CBB PUSH1 0xE0 SHL DUP2 MSTORE PUSH32 0x0 SWAP1 SWAP2 AND SWAP2 PUSH4 0xA9059CBB SWAP2 PUSH2 0x1824 SWAP2 DUP9 SWAP2 DUP7 SWAP2 ADD PUSH2 0x2032 JUMP JUMPDEST PUSH1 0x20 PUSH1 0x40 MLOAD DUP1 DUP4 SUB DUP2 PUSH1 0x0 DUP8 DUP1 EXTCODESIZE ISZERO DUP1 ISZERO PUSH2 0x183E JUMPI PUSH1 0x0 DUP1 REVERT JUMPDEST POP GAS CALL ISZERO DUP1 ISZERO PUSH2 0x1852 JUMPI RETURNDATASIZE PUSH1 0x0 DUP1 RETURNDATACOPY RETURNDATASIZE PUSH1 0x0 REVERT JUMPDEST POP POP POP POP PUSH1 0x40 MLOAD RETURNDATASIZE PUSH1 0x1F NOT PUSH1 0x1F DUP3 ADD AND DUP3 ADD DUP1 PUSH1 0x40 MSTORE POP DUP2 ADD SWAP1 PUSH2 0x1876 SWAP2 SWAP1 PUSH2 0x1BFB JUMP JUMPDEST POP PUSH1 0x0 PUSH1 0x1 PUSH1 0x1 PUSH1 0xA0 SHL SUB AND DUP6 PUSH1 0x1 PUSH1 0x1 PUSH1 0xA0 SHL SUB AND PUSH32 0xDDF252AD1BE2C89B69C2B068FC378DAA952BA7F163C4A11628F55A4DF523B3EF DUP6 PUSH1 0x40 MLOAD PUSH2 0x18BB SWAP2 SWAP1 PUSH2 0x2091 JUMP JUMPDEST PUSH1 0x40 MLOAD DUP1 SWAP2 SUB SWAP1 LOG3 POP POP POP POP POP JUMP JUMPDEST PUSH1 0x0 PUSH1 0x40 MLOAD DUP1 PUSH1 0x40 ADD PUSH1 0x40 MSTORE DUP1 PUSH1 0x2 DUP2 MSTORE PUSH1 0x20 ADD PUSH2 0x1901 PUSH1 0xF0 SHL DUP2 MSTORE POP PUSH2 0x18EF PUSH2 0x1598 JUMP JUMPDEST DUP4 PUSH1 0x40 MLOAD PUSH1 0x20 ADD PUSH2 0x1902 SWAP4 SWAP3 SWAP2 SWAP1 PUSH2 0x1FC9 JUMP JUMPDEST PUSH1 0x40 MLOAD PUSH1 0x20 DUP2 DUP4 SUB SUB DUP2 MSTORE SWAP1 PUSH1 0x40 MSTORE DUP1 MLOAD SWAP1 PUSH1 0x20 ADD KECCAK256 SWAP1 POP SWAP2 SWAP1 POP JUMP JUMPDEST PUSH1 0x0 PUSH32 0x47E79534A245952E8B16893A336B85A3D9EA9FA8C573F3D803AFB92A79469218 DUP3 ADDRESS PUSH1 0x40 MLOAD PUSH1 0x20 ADD PUSH2 0x1902 SWAP4 SWAP3 SWAP2 SWAP1 PUSH2 0x20F9 JUMP JUMPDEST DUP1 DUP3 SUB PUSH1 0x1 PUSH1 0x1 PUSH1 0x80 SHL SUB DUP1 DUP5 AND SWAP1 DUP3 AND GT ISZERO PUSH2 0x665 JUMPI PUSH1 0x40 MLOAD PUSH3 0x461BCD PUSH1 0xE5 SHL DUP2 MSTORE PUSH1 0x4 ADD PUSH2 0x6D4 SWAP1 PUSH2 0x2175 JUMP JUMPDEST PUSH1 0x40 DUP1 MLOAD DUP1 DUP3 ADD SWAP1 SWAP2 MSTORE PUSH1 0x0 DUP1 DUP3 MSTORE PUSH1 0x20 DUP3 ADD MSTORE SWAP1 JUMP JUMPDEST DUP1 CALLDATALOAD PUSH2 0x665 DUP2 PUSH2 0x23D7 JUMP JUMPDEST DUP1 MLOAD PUSH2 0x665 DUP2 PUSH2 0x23EE JUMP JUMPDEST DUP1 CALLDATALOAD PUSH2 0x665 DUP2 PUSH2 0x23F7 JUMP JUMPDEST PUSH1 0x0 DUP3 PUSH1 0x1F DUP4 ADD SLT PUSH2 0x19CE JUMPI PUSH1 0x0 DUP1 REVERT JUMPDEST DUP2 CALLDATALOAD PUSH2 0x19E1 PUSH2 0x19DC DUP3 PUSH2 0x2314 JUMP JUMPDEST PUSH2 0x22ED JUMP JUMPDEST SWAP2 POP DUP1 DUP3 MSTORE PUSH1 0x20 DUP4 ADD PUSH1 0x20 DUP4 ADD DUP6 DUP4 DUP4 ADD GT ISZERO PUSH2 0x19FD JUMPI PUSH1 0x0 DUP1 REVERT JUMPDEST PUSH2 0x1A08 DUP4 DUP3 DUP5 PUSH2 0x2391 JUMP JUMPDEST POP POP POP SWAP3 SWAP2 POP POP JUMP JUMPDEST DUP1 MLOAD PUSH2 0x665 DUP2 PUSH2 0x23F7 JUMP JUMPDEST DUP1 CALLDATALOAD PUSH2 0x665 DUP2 PUSH2 0x2400 JUMP JUMPDEST PUSH1 0x0 PUSH1 0x20 DUP3 DUP5 SUB SLT ISZERO PUSH2 0x1A39 JUMPI PUSH1 0x0 DUP1 REVERT JUMPDEST PUSH1 0x0 PUSH2 0x1A45 DUP5 DUP5 PUSH2 0x199C JUMP JUMPDEST SWAP5 SWAP4 POP POP POP POP JUMP JUMPDEST PUSH1 0x0 DUP1 PUSH1 0x40 DUP4 DUP6 SUB SLT ISZERO PUSH2 0x1A60 JUMPI PUSH1 0x0 DUP1 REVERT JUMPDEST PUSH1 0x0 PUSH2 0x1A6C DUP6 DUP6 PUSH2 0x199C JUMP JUMPDEST SWAP3 POP POP PUSH1 0x20 PUSH2 0x1A7D DUP6 DUP3 DUP7 ADD PUSH2 0x199C JUMP JUMPDEST SWAP2 POP POP SWAP3 POP SWAP3 SWAP1 POP JUMP JUMPDEST PUSH1 0x0 DUP1 PUSH1 0x0 PUSH1 0x60 DUP5 DUP7 SUB SLT ISZERO PUSH2 0x1A9C JUMPI PUSH1 0x0 DUP1 REVERT JUMPDEST PUSH1 0x0 PUSH2 0x1AA8 DUP7 DUP7 PUSH2 0x199C JUMP JUMPDEST SWAP4 POP POP PUSH1 0x20 PUSH2 0x1AB9 DUP7 DUP3 DUP8 ADD PUSH2 0x199C JUMP JUMPDEST SWAP3 POP POP PUSH1 0x40 PUSH2 0x1ACA DUP7 DUP3 DUP8 ADD PUSH2 0x19B2 JUMP JUMPDEST SWAP2 POP POP SWAP3 POP SWAP3 POP SWAP3 JUMP JUMPDEST PUSH1 0x0 DUP1 PUSH1 0x0 DUP1 PUSH1 0x0 DUP1 PUSH1 0x0 PUSH1 0xE0 DUP9 DUP11 SUB SLT ISZERO PUSH2 0x1AEF JUMPI PUSH1 0x0 DUP1 REVERT JUMPDEST PUSH1 0x0 PUSH2 0x1AFB DUP11 DUP11 PUSH2 0x199C JUMP JUMPDEST SWAP8 POP POP PUSH1 0x20 PUSH2 0x1B0C DUP11 DUP3 DUP12 ADD PUSH2 0x199C JUMP JUMPDEST SWAP7 POP POP PUSH1 0x40 PUSH2 0x1B1D DUP11 DUP3 DUP12 ADD PUSH2 0x19B2 JUMP JUMPDEST SWAP6 POP POP PUSH1 0x60 PUSH2 0x1B2E DUP11 DUP3 DUP12 ADD PUSH2 0x19B2 JUMP JUMPDEST SWAP5 POP POP PUSH1 0x80 PUSH2 0x1B3F DUP11 DUP3 DUP12 ADD PUSH2 0x1A1C JUMP JUMPDEST SWAP4 POP POP PUSH1 0xA0 PUSH2 0x1B50 DUP11 DUP3 DUP12 ADD PUSH2 0x19B2 JUMP JUMPDEST SWAP3 POP POP PUSH1 0xC0 PUSH2 0x1B61 DUP11 DUP3 DUP12 ADD PUSH2 0x19B2 JUMP JUMPDEST SWAP2 POP POP SWAP3 SWAP6 SWAP9 SWAP2 SWAP5 SWAP8 POP SWAP3 SWAP6 POP JUMP JUMPDEST PUSH1 0x0 DUP1 PUSH1 0x40 DUP4 DUP6 SUB SLT ISZERO PUSH2 0x1B83 JUMPI PUSH1 0x0 DUP1 REVERT JUMPDEST PUSH1 0x0 PUSH2 0x1B8F DUP6 DUP6 PUSH2 0x199C JUMP JUMPDEST SWAP3 POP POP PUSH1 0x20 PUSH2 0x1A7D DUP6 DUP3 DUP7 ADD PUSH2 0x19B2 JUMP JUMPDEST PUSH1 0x0 DUP1 PUSH1 0x0 PUSH1 0x60 DUP5 DUP7 SUB SLT ISZERO PUSH2 0x1BB5 JUMPI PUSH1 0x0 DUP1 REVERT JUMPDEST PUSH1 0x0 PUSH2 0x1BC1 DUP7 DUP7 PUSH2 0x199C JUMP JUMPDEST SWAP4 POP POP PUSH1 0x20 PUSH2 0x1BD2 DUP7 DUP3 DUP8 ADD PUSH2 0x19B2 JUMP JUMPDEST SWAP3 POP POP PUSH1 0x40 DUP5 ADD CALLDATALOAD PUSH8 0xFFFFFFFFFFFFFFFF DUP2 GT ISZERO PUSH2 0x1BEF JUMPI PUSH1 0x0 DUP1 REVERT JUMPDEST PUSH2 0x1ACA DUP7 DUP3 DUP8 ADD PUSH2 0x19BD JUMP JUMPDEST PUSH1 0x0 PUSH1 0x20 DUP3 DUP5 SUB SLT ISZERO PUSH2 0x1C0D JUMPI PUSH1 0x0 DUP1 REVERT JUMPDEST PUSH1 0x0 PUSH2 0x1A45 DUP5 DUP5 PUSH2 0x19A7 JUMP JUMPDEST PUSH1 0x0 PUSH1 0x20 DUP3 DUP5 SUB SLT ISZERO PUSH2 0x1C2B JUMPI PUSH1 0x0 DUP1 REVERT JUMPDEST PUSH1 0x0 PUSH2 0x1A45 DUP5 DUP5 PUSH2 0x19B2 JUMP JUMPDEST PUSH1 0x0 PUSH1 0x20 DUP3 DUP5 SUB SLT ISZERO PUSH2 0x1C49 JUMPI PUSH1 0x0 DUP1 REVERT JUMPDEST PUSH1 0x0 PUSH2 0x1A45 DUP5 DUP5 PUSH2 0x1A11 JUMP JUMPDEST PUSH1 0x0 DUP1 PUSH1 0x40 DUP4 DUP6 SUB SLT ISZERO PUSH2 0x1C68 JUMPI PUSH1 0x0 DUP1 REVERT JUMPDEST PUSH1 0x0 PUSH2 0x1A6C DUP6 DUP6 PUSH2 0x19B2 JUMP JUMPDEST PUSH2 0x1C7D DUP2 PUSH2 0x237F JUMP JUMPDEST DUP3 MSTORE POP POP JUMP JUMPDEST PUSH2 0x1C7D DUP2 PUSH2 0x234E JUMP JUMPDEST PUSH2 0x1C7D DUP2 PUSH2 0x2359 JUMP JUMPDEST PUSH2 0x1C7D DUP2 PUSH2 0x235E JUMP JUMPDEST PUSH2 0x1C7D PUSH2 0x1CAA DUP3 PUSH2 0x235E JUMP JUMPDEST PUSH2 0x235E JUMP JUMPDEST PUSH1 0x0 PUSH2 0x1CBA DUP3 PUSH2 0x233C JUMP JUMPDEST PUSH2 0x1CC4 DUP2 DUP6 PUSH2 0x2340 JUMP JUMPDEST SWAP4 POP PUSH2 0x1CD4 DUP2 DUP6 PUSH1 0x20 DUP7 ADD PUSH2 0x239D JUMP JUMPDEST PUSH2 0x1CDD DUP2 PUSH2 0x23CD JUMP JUMPDEST SWAP1 SWAP4 ADD SWAP4 SWAP3 POP POP POP JUMP JUMPDEST PUSH1 0x0 PUSH2 0x1CF2 DUP3 PUSH2 0x233C JUMP JUMPDEST PUSH2 0x1CFC DUP2 DUP6 PUSH2 0x2349 JUMP JUMPDEST SWAP4 POP PUSH2 0x1D0C DUP2 DUP6 PUSH1 0x20 DUP7 ADD PUSH2 0x239D JUMP JUMPDEST SWAP3 SWAP1 SWAP3 ADD SWAP3 SWAP2 POP POP JUMP JUMPDEST PUSH2 0x1C7D DUP2 PUSH2 0x2386 JUMP JUMPDEST PUSH1 0x0 PUSH2 0x1D2C PUSH1 0x15 DUP4 PUSH2 0x2340 JUMP JUMPDEST PUSH21 0x426F72696E674D6174683A20556E646572666C6F77 PUSH1 0x58 SHL DUP2 MSTORE PUSH1 0x20 ADD SWAP3 SWAP2 POP POP JUMP JUMPDEST PUSH1 0x0 PUSH2 0x1D5D PUSH1 0x10 DUP4 PUSH2 0x2340 JUMP JUMPDEST PUSH16 0x4E6F7420656E6F75676820766F746573 PUSH1 0x80 SHL DUP2 MSTORE PUSH1 0x20 ADD SWAP3 SWAP2 POP POP JUMP JUMPDEST PUSH1 0x0 PUSH2 0x1D89 PUSH1 0x6 DUP4 PUSH2 0x2340 JUMP JUMPDEST PUSH6 0x131BD8DAD959 PUSH1 0xD2 SHL DUP2 MSTORE PUSH1 0x20 ADD SWAP3 SWAP2 POP POP JUMP JUMPDEST PUSH1 0x0 PUSH2 0x1DAB PUSH1 0xD DUP4 PUSH2 0x2340 JUMP JUMPDEST PUSH13 0x4C6F7720616C6C6F77616E6365 PUSH1 0x98 SHL DUP2 MSTORE PUSH1 0x20 ADD SWAP3 SWAP2 POP POP JUMP JUMPDEST PUSH1 0x0 PUSH2 0x1DD4 PUSH1 0xD DUP4 PUSH2 0x2340 JUMP JUMPDEST PUSH13 0x2D32B9379037B832B930BA37B9 PUSH1 0x99 SHL DUP2 MSTORE PUSH1 0x20 ADD SWAP3 SWAP2 POP POP JUMP JUMPDEST PUSH1 0x0 PUSH2 0x1DFD PUSH1 0xB DUP4 PUSH2 0x2340 JUMP JUMPDEST PUSH11 0x4C6F772062616C616E6365 PUSH1 0xA8 SHL DUP2 MSTORE PUSH1 0x20 ADD SWAP3 SWAP2 POP POP JUMP JUMPDEST PUSH1 0x0 PUSH2 0x1E24 PUSH1 0xC DUP4 PUSH2 0x2340 JUMP JUMPDEST PUSH12 0x5A65726F2061646472657373 PUSH1 0xA0 SHL DUP2 MSTORE PUSH1 0x20 ADD SWAP3 SWAP2 POP POP JUMP JUMPDEST PUSH1 0x0 PUSH2 0x1E4C PUSH1 0x8 DUP4 PUSH2 0x2340 JUMP JUMPDEST PUSH8 0x5478207374616C65 PUSH1 0xC0 SHL DUP2 MSTORE PUSH1 0x20 ADD SWAP3 SWAP2 POP POP JUMP JUMPDEST PUSH1 0x0 PUSH2 0x1E70 PUSH1 0x1C DUP4 PUSH2 0x2340 JUMP JUMPDEST PUSH32 0x426F72696E674D6174683A2075696E74313238204F766572666C6F7700000000 DUP2 MSTORE PUSH1 0x20 ADD SWAP3 SWAP2 POP POP JUMP JUMPDEST PUSH1 0x0 PUSH2 0x1EA9 PUSH1 0x9 DUP4 PUSH2 0x2340 JUMP JUMPDEST PUSH9 0x546F6F206561726C79 PUSH1 0xB8 SHL DUP2 MSTORE PUSH1 0x20 ADD SWAP3 SWAP2 POP POP JUMP JUMPDEST PUSH1 0x0 PUSH2 0x1ECE PUSH1 0xE DUP4 PUSH2 0x2340 JUMP JUMPDEST PUSH14 0xA8F040E4CAECCAE4E8CAC840745 PUSH1 0x93 SHL DUP2 MSTORE PUSH1 0x20 ADD SWAP3 SWAP2 POP POP JUMP JUMPDEST PUSH1 0x0 PUSH2 0x1EF8 PUSH1 0xD DUP4 PUSH2 0x2340 JUMP JUMPDEST PUSH13 0x4F70657261746F72206F6E6C79 PUSH1 0x98 SHL DUP2 MSTORE PUSH1 0x20 ADD SWAP3 SWAP2 POP POP JUMP JUMPDEST PUSH1 0x0 PUSH2 0x1F21 PUSH1 0xB DUP4 PUSH2 0x2340 JUMP JUMPDEST PUSH11 0x496E76616C696420536967 PUSH1 0xA8 SHL DUP2 MSTORE PUSH1 0x20 ADD SWAP3 SWAP2 POP POP JUMP JUMPDEST PUSH1 0x0 PUSH2 0x1F48 PUSH1 0xA DUP4 PUSH2 0x2340 JUMP JUMPDEST PUSH10 0x2D32B9379037BBB732B9 PUSH1 0xB1 SHL DUP2 MSTORE PUSH1 0x20 ADD SWAP3 SWAP2 POP POP JUMP JUMPDEST PUSH1 0x0 PUSH2 0x1F6E PUSH1 0x7 DUP4 PUSH2 0x2340 JUMP JUMPDEST PUSH7 0x115E1C1A5C9959 PUSH1 0xCA SHL DUP2 MSTORE PUSH1 0x20 ADD SWAP3 SWAP2 POP POP JUMP JUMPDEST PUSH1 0x0 PUSH2 0x1F91 PUSH1 0xB DUP4 PUSH2 0x2340 JUMP JUMPDEST PUSH11 0x2BB0B4BA103637B733B2B9 PUSH1 0xA9 SHL DUP2 MSTORE PUSH1 0x20 ADD SWAP3 SWAP2 POP POP JUMP JUMPDEST PUSH2 0x1C7D DUP2 PUSH2 0x2361 JUMP JUMPDEST PUSH2 0x1C7D DUP2 PUSH2 0x2379 JUMP JUMPDEST PUSH1 0x0 PUSH2 0x68C DUP3 DUP5 PUSH2 0x1CE7 JUMP JUMPDEST PUSH1 0x0 PUSH2 0x1FD5 DUP3 DUP7 PUSH2 0x1CE7 JUMP JUMPDEST SWAP2 POP PUSH2 0x1FE1 DUP3 DUP6 PUSH2 0x1C9E JUMP JUMPDEST PUSH1 0x20 DUP3 ADD SWAP2 POP PUSH2 0x1FF1 DUP3 DUP5 PUSH2 0x1C9E JUMP JUMPDEST POP PUSH1 0x20 ADD SWAP4 SWAP3 POP POP POP JUMP JUMPDEST PUSH1 0x20 DUP2 ADD PUSH2 0x665 DUP3 DUP5 PUSH2 0x1C83 JUMP JUMPDEST PUSH1 0x60 DUP2 ADD PUSH2 0x2018 DUP3 DUP7 PUSH2 0x1C74 JUMP JUMPDEST PUSH2 0x2025 PUSH1 0x20 DUP4 ADD DUP6 PUSH2 0x1C83 JUMP JUMPDEST PUSH2 0x1A45 PUSH1 0x40 DUP4 ADD DUP5 PUSH2 0x1C95 JUMP JUMPDEST PUSH1 0x40 DUP2 ADD PUSH2 0x2040 DUP3 DUP6 PUSH2 0x1C83 JUMP JUMPDEST PUSH2 0x68C PUSH1 0x20 DUP4 ADD DUP5 PUSH2 0x1C95 JUMP JUMPDEST PUSH1 0x60 DUP2 ADD PUSH2 0x205B DUP3 DUP7 PUSH2 0x1C83 JUMP JUMPDEST PUSH2 0x2068 PUSH1 0x20 DUP4 ADD DUP6 PUSH2 0x1C95 JUMP JUMPDEST DUP2 DUP2 SUB PUSH1 0x40 DUP4 ADD MSTORE PUSH2 0x207A DUP2 DUP5 PUSH2 0x1CAF JUMP JUMPDEST SWAP6 SWAP5 POP POP POP POP POP JUMP JUMPDEST PUSH1 0x20 DUP2 ADD PUSH2 0x665 DUP3 DUP5 PUSH2 0x1C8C JUMP JUMPDEST PUSH1 0x20 DUP2 ADD PUSH2 0x665 DUP3 DUP5 PUSH2 0x1C95 JUMP JUMPDEST PUSH1 0xC0 DUP2 ADD PUSH2 0x20AD DUP3 DUP10 PUSH2 0x1C95 JUMP JUMPDEST PUSH2 0x20BA PUSH1 0x20 DUP4 ADD DUP9 PUSH2 0x1C83 JUMP JUMPDEST PUSH2 0x20C7 PUSH1 0x40 DUP4 ADD DUP8 PUSH2 0x1C83 JUMP JUMPDEST PUSH2 0x20D4 PUSH1 0x60 DUP4 ADD DUP7 PUSH2 0x1C95 JUMP JUMPDEST PUSH2 0x20E1 PUSH1 0x80 DUP4 ADD DUP6 PUSH2 0x1C95 JUMP JUMPDEST PUSH2 0x20EE PUSH1 0xA0 DUP4 ADD DUP5 PUSH2 0x1C95 JUMP JUMPDEST SWAP8 SWAP7 POP POP POP POP POP POP POP JUMP JUMPDEST PUSH1 0x60 DUP2 ADD PUSH2 0x2107 DUP3 DUP7 PUSH2 0x1C95 JUMP JUMPDEST PUSH2 0x2114 PUSH1 0x20 DUP4 ADD DUP6 PUSH2 0x1C95 JUMP JUMPDEST PUSH2 0x1A45 PUSH1 0x40 DUP4 ADD DUP5 PUSH2 0x1C83 JUMP JUMPDEST PUSH1 0x80 DUP2 ADD PUSH2 0x212F DUP3 DUP8 PUSH2 0x1C95 JUMP JUMPDEST PUSH2 0x213C PUSH1 0x20 DUP4 ADD DUP7 PUSH2 0x1FB4 JUMP JUMPDEST PUSH2 0x2149 PUSH1 0x40 DUP4 ADD DUP6 PUSH2 0x1C95 JUMP JUMPDEST PUSH2 0x207A PUSH1 0x60 DUP4 ADD DUP5 PUSH2 0x1C95 JUMP JUMPDEST PUSH1 0x20 DUP1 DUP3 MSTORE DUP2 ADD PUSH2 0x68C DUP2 DUP5 PUSH2 0x1CAF JUMP JUMPDEST PUSH1 0x20 DUP2 ADD PUSH2 0x665 DUP3 DUP5 PUSH2 0x1D16 JUMP JUMPDEST PUSH1 0x20 DUP1 DUP3 MSTORE DUP2 ADD PUSH2 0x665 DUP2 PUSH2 0x1D1F JUMP JUMPDEST PUSH1 0x20 DUP1 DUP3 MSTORE DUP2 ADD PUSH2 0x665 DUP2 PUSH2 0x1D50 JUMP JUMPDEST PUSH1 0x20 DUP1 DUP3 MSTORE DUP2 ADD PUSH2 0x665 DUP2 PUSH2 0x1D7C JUMP JUMPDEST PUSH1 0x20 DUP1 DUP3 MSTORE DUP2 ADD PUSH2 0x665 DUP2 PUSH2 0x1D9E JUMP JUMPDEST PUSH1 0x20 DUP1 DUP3 MSTORE DUP2 ADD PUSH2 0x665 DUP2 PUSH2 0x1DC7 JUMP JUMPDEST PUSH1 0x20 DUP1 DUP3 MSTORE DUP2 ADD PUSH2 0x665 DUP2 PUSH2 0x1DF0 JUMP JUMPDEST PUSH1 0x20 DUP1 DUP3 MSTORE DUP2 ADD PUSH2 0x665 DUP2 PUSH2 0x1E17 JUMP JUMPDEST PUSH1 0x20 DUP1 DUP3 MSTORE DUP2 ADD PUSH2 0x665 DUP2 PUSH2 0x1E3F JUMP JUMPDEST PUSH1 0x20 DUP1 DUP3 MSTORE DUP2 ADD PUSH2 0x665 DUP2 PUSH2 0x1E63 JUMP JUMPDEST PUSH1 0x20 DUP1 DUP3 MSTORE DUP2 ADD PUSH2 0x665 DUP2 PUSH2 0x1E9C JUMP JUMPDEST PUSH1 0x20 DUP1 DUP3 MSTORE DUP2 ADD PUSH2 0x665 DUP2 PUSH2 0x1EC1 JUMP JUMPDEST PUSH1 0x20 DUP1 DUP3 MSTORE DUP2 ADD PUSH2 0x665 DUP2 PUSH2 0x1EEB JUMP JUMPDEST PUSH1 0x20 DUP1 DUP3 MSTORE DUP2 ADD PUSH2 0x665 DUP2 PUSH2 0x1F14 JUMP JUMPDEST PUSH1 0x20 DUP1 DUP3 MSTORE DUP2 ADD PUSH2 0x665 DUP2 PUSH2 0x1F3B JUMP JUMPDEST PUSH1 0x20 DUP1 DUP3 MSTORE DUP2 ADD PUSH2 0x665 DUP2 PUSH2 0x1F61 JUMP JUMPDEST PUSH1 0x20 DUP1 DUP3 MSTORE DUP2 ADD PUSH2 0x665 DUP2 PUSH2 0x1F84 JUMP JUMPDEST PUSH1 0x40 DUP2 ADD PUSH2 0x2283 DUP3 DUP6 PUSH2 0x1FAB JUMP JUMPDEST PUSH2 0x68C PUSH1 0x20 DUP4 ADD DUP5 PUSH2 0x1FAB JUMP JUMPDEST PUSH1 0x40 DUP2 ADD PUSH2 0x229E DUP3 DUP6 PUSH2 0x1C95 JUMP JUMPDEST DUP2 DUP2 SUB PUSH1 0x20 DUP4 ADD MSTORE PUSH2 0x1A45 DUP2 DUP5 PUSH2 0x1CAF JUMP JUMPDEST PUSH1 0x60 DUP2 ADD PUSH2 0x22BE DUP3 DUP7 PUSH2 0x1C95 JUMP JUMPDEST DUP2 DUP2 SUB PUSH1 0x20 DUP4 ADD MSTORE PUSH2 0x22D0 DUP2 DUP6 PUSH2 0x1CAF JUMP JUMPDEST SWAP1 POP PUSH2 0x1A45 PUSH1 0x40 DUP4 ADD DUP5 PUSH2 0x1C95 JUMP JUMPDEST PUSH1 0x20 DUP2 ADD PUSH2 0x665 DUP3 DUP5 PUSH2 0x1FB4 JUMP JUMPDEST PUSH1 0x40 MLOAD DUP2 DUP2 ADD PUSH8 0xFFFFFFFFFFFFFFFF DUP2 GT DUP3 DUP3 LT OR ISZERO PUSH2 0x230C JUMPI PUSH1 0x0 DUP1 REVERT JUMPDEST PUSH1 0x40 MSTORE SWAP2 SWAP1 POP JUMP JUMPDEST PUSH1 0x0 PUSH8 0xFFFFFFFFFFFFFFFF DUP3 GT ISZERO PUSH2 0x232B JUMPI PUSH1 0x0 DUP1 REVERT JUMPDEST POP PUSH1 0x20 PUSH1 0x1F SWAP2 SWAP1 SWAP2 ADD PUSH1 0x1F NOT AND ADD SWAP1 JUMP JUMPDEST MLOAD SWAP1 JUMP JUMPDEST SWAP1 DUP2 MSTORE PUSH1 0x20 ADD SWAP1 JUMP JUMPDEST SWAP2 SWAP1 POP JUMP JUMPDEST PUSH1 0x0 PUSH2 0x665 DUP3 PUSH2 0x236D JUMP JUMPDEST ISZERO ISZERO SWAP1 JUMP JUMPDEST SWAP1 JUMP JUMPDEST PUSH1 0x1 PUSH1 0x1 PUSH1 0x80 SHL SUB AND SWAP1 JUMP JUMPDEST PUSH1 0x1 PUSH1 0x1 PUSH1 0xA0 SHL SUB AND SWAP1 JUMP JUMPDEST PUSH1 0xFF AND SWAP1 JUMP JUMPDEST PUSH1 0x0 PUSH2 0x665 DUP3 JUMPDEST PUSH1 0x0 PUSH2 0x665 DUP3 PUSH2 0x234E JUMP JUMPDEST DUP3 DUP2 DUP4 CALLDATACOPY POP PUSH1 0x0 SWAP2 ADD MSTORE JUMP JUMPDEST PUSH1 0x0 JUMPDEST DUP4 DUP2 LT ISZERO PUSH2 0x23B8 JUMPI DUP2 DUP2 ADD MLOAD DUP4 DUP3 ADD MSTORE PUSH1 0x20 ADD PUSH2 0x23A0 JUMP JUMPDEST DUP4 DUP2 GT ISZERO PUSH2 0x23C7 JUMPI PUSH1 0x0 DUP5 DUP5 ADD MSTORE JUMPDEST POP POP POP POP JUMP JUMPDEST PUSH1 0x1F ADD PUSH1 0x1F NOT AND SWAP1 JUMP JUMPDEST PUSH2 0x23E0 DUP2 PUSH2 0x234E JUMP JUMPDEST DUP2 EQ PUSH2 0x23EB JUMPI PUSH1 0x0 DUP1 REVERT JUMPDEST POP JUMP JUMPDEST PUSH2 0x23E0 DUP2 PUSH2 0x2359 JUMP JUMPDEST PUSH2 0x23E0 DUP2 PUSH2 0x235E JUMP JUMPDEST PUSH2 0x23E0 DUP2 PUSH2 0x2379 JUMP INVALID LOG1 PUSH5 0x736F6C6343 STOP MOD 0xC STOP EXP "
        },
        "methodIdentifiers": {
          "DELAY()": "69b41170",
          "DOMAIN_SEPARATOR()": "3644e515",
          "GRACE_PERIOD()": "c1a287e2",
          "allowance(address,address)": "dd62ed3e",
          "approve(address,uint256)": "095ea7b3",
          "balanceOf(address)": "70a08231",
          "burn(address,uint256)": "9dc29fac",
          "burnFrom(address,address,uint256)": "ec60bcf3",
          "cancelTransaction(address,uint256,bytes)": "e37c9fd5",
          "decimals()": "313ce567",
          "executeTransaction(address,uint256,bytes)": "3f579f42",
          "mint(uint256,address)": "94bf804d",
          "name()": "06fdde03",
          "nonces(address)": "7ecebe00",
          "operator()": "570ca735",
          "pendingOperator()": "ac7e534e",
          "pendingOperatorTime()": "4881636d",
          "permit(address,address,uint256,uint256,uint8,bytes32,bytes32)": "d505accf",
          "queueTransaction(address,uint256,bytes)": "80b3b099",
          "queuedTransactions(bytes32)": "f2b06537",
          "setOperator(address)": "b3ab15fb",
          "symbol()": "95d89b41",
          "token()": "fc0c546a",
          "totalSupply()": "18160ddd",
          "transfer(address,uint256)": "a9059cbb",
          "transferFrom(address,address,uint256)": "23b872dd",
          "userVote(address)": "f5ba1c87",
          "users(address)": "a87430ba",
          "vote(address)": "6dd7d8ea",
          "votes(address)": "d8bff5a5"
        }
      }
    }
  }
}